:100000000C942A000C943F000C943F000C943F0089
:100010000C943F000C943F000C943F000C943F0064
:100020000C943F000C943F000C943F000C943F0054
:100030000C943F000C943F000C943F000C943F0044
:100040000C943F000C943F000C943F000C943F0034
:100050000C943F0011241FBECFE5D8E0DEBFCDBF1A
:1000600010E0A0E6B0E0EAEEFDE002C005900D92DF
:10007000A037B107D9F70E94A3060C94F3060C949D
:100080000000DF93CF9300D000D0CDB7DEB78983D7
:100090006A834B838A81883018F081E08C83D8C0D2
:1000A0008981882391F58B818130A1F4AAE3B0E0A6
:1000B000EAE3F0E08081482F8A81282F30E081E058
:1000C00090E0022E02C0880F991F0A94E2F7842B59
:1000D0008C93BDC08B818823A9F4AAE3B0E0EAE346
:1000E000F0E08081482F8A81282F30E081E090E085
:1000F000022E02C0880F991F0A94E2F7809584238C
:100100008C93A5C081E08C83A3C08981813091F557
:100110008B818130A1F4A7E3B0E0E7E3F0E08081D8
:10012000482F8A81282F30E081E090E0022E02C023
:10013000880F991F0A94E2F7842B8C9388C08B81D7
:100140008823A9F4A7E3B0E0E7E3F0E08081482F3B
:100150008A81282F30E081E090E0022E02C0880FD3
:10016000991F0A94E2F7809584238C9370C081E0F4
:100170008C836EC08981823091F58B818130A1F4AE
:10018000A4E3B0E0E4E3F0E08081482F8A81282FE7
:1001900030E081E090E0022E02C0880F991F0A949F
:1001A000E2F7842B8C9353C08B818823A9F4A4E3BA
:1001B000B0E0E4E3F0E08081482F8A81282F30E02E
:1001C00081E090E0022E02C0880F991F0A94E2F7A6
:1001D000809584238C933BC081E08C8339C08981D6
:1001E000833091F58B818130A1F4A1E3B0E0E1E3AC
:1001F000F0E08081482F8A81282F30E081E090E074
:10020000022E02C0880F991F0A94E2F7842B8C9368
:100210001EC08B818823A9F4A1E3B0E0E1E3F0E004
:100220008081482F8A81282F30E081E090E0022EE3
:1002300002C0880F991F0A94E2F7809584238C935B
:1002400006C081E08C8304C081E08C8301C01C82E5
:100250008C810F900F900F900F90CF91DF910895A8
:10026000DF93CF9300D000D0CDB7DEB789836A8308
:100270004B838A81883018F081E08C83D8C08981D3
:10028000882391F58B818130A1F4ABE3B0E0EBE3FF
:10029000F0E08081482F8A81282F30E081E090E0D3
:1002A000022E02C0880F991F0A94E2F7842B8C93C8
:1002B000BDC08B818823A9F4ABE3B0E0EBE3F0E0B1
:1002C0008081482F8A81282F30E081E090E0022E43
:1002D00002C0880F991F0A94E2F7809584238C93BB
:1002E000A5C081E08C83A3C08981813091F58B8189
:1002F0008130A1F4A8E3B0E0E8E3F0E08081482F8A
:100300008A81282F30E081E090E0022E02C0880F21
:10031000991F0A94E2F7842B8C9388C08B818823E1
:10032000A9F4A8E3B0E0E8E3F0E08081482F8A81F7
:10033000282F30E081E090E0022E02C0880F991F44
:100340000A94E2F7809584238C9370C081E08C83BB
:100350006EC08981823091F58B818130A1F4A5E353
:10036000B0E0E5E3F0E08081482F8A81282F30E07B
:1003700081E090E0022E02C0880F991F0A94E2F7F4
:10038000842B8C9353C08B818823A9F4A5E3B0E020
:10039000E5E3F0E08081482F8A81282F30E081E07A
:1003A00090E0022E02C0880F991F0A94E2F7809510
:1003B00084238C933BC081E08C8339C08981833056
:1003C00091F58B818130A1F4A2E3B0E0E2E3F0E0AB
:1003D0008081482F8A81282F30E081E090E0022E32
:1003E00002C0880F991F0A94E2F7842B8C931EC0D9
:1003F0008B818823A9F4A2E3B0E0E2E3F0E08081FE
:10040000482F8A81282F30E081E090E0022E02C040
:10041000880F991F0A94E2F7809584238C9306C075
:1004200081E08C8304C081E08C8301C01C828C81BC
:100430000F900F900F900F90CF91DF910895DF9361
:10044000CF9300D000D00F92CDB7DEB789836A83F7
:100450005C834B838A81883018F041E04D8360C013
:1004600089818823A1F4E9E3F0E08081282F30E03E
:100470008A81882F90E0A90102C0559547958A95F9
:10048000E2F7CA018170EB81FC81808348C08981D9
:100490008130A1F4E6E3F0E08081282F30E08A810A
:1004A000882F90E0A90102C0559547958A95E2F7FB
:1004B000CA018170EB81FC81808331C089818230E7
:1004C000A1F4E3E3F0E08081282F30E08A81882FD7
:1004D00090E0A90102C0559547958A95E2F7CA01B7
:1004E0008170EB81FC8180831AC089818330A1F403
:1004F000E0E3F0E08081282F30E08A81882F90E0CF
:10050000A90102C0559547958A95E2F7CA01817005
:10051000EB81FC81808303C051E05D8301C01D82BB
:100520008D810F900F900F900F900F90CF91DF91D2
:100530000895DF93CF9300D000D00F92CDB7DEB7F0
:1005400089836A838A81813031F08A81813019F010
:1005500021E02D8353C08981282F30E03C832B83F9
:100560008B819C818130910509F12B813C81223066
:1005700031052CF48B819C81009761F03BC02B816D
:100580003C8122303105F1F08B819C8183309105D3
:1005900029F130C08A81813029F4EAE3F0E08FEF5D
:1005A00080832BC0EAE3F0E0108227C08A8181308B
:1005B00029F4E7E3F0E08FEF80831FC0E7E3F0E08A
:1005C00010821BC08A81813029F4E4E3F0E08FEFD0
:1005D000808313C0E4E3F0E010820FC08A81813091
:1005E00029F4E1E3F0E08FEF808307C0E1E3F0E07E
:1005F000108203C091E09D8301C01D828D810F9008
:100600000F900F900F900F90CF91DF910895DF938F
:10061000CF9300D000D00F92CDB7DEB789836A8325
:100620008A81813031F08A81882319F021E02D837D
:1006300053C08981282F30E03C832B838B819C81A0
:100640008130910509F12B813C81223031052CF458
:100650008B819C81009761F03BC02B813C812230D3
:100660003105F1F08B819C818330910529F130C0F7
:100670008A81813029F4EBE3F0E08FEF80832BC097
:10068000EBE3F0E0108227C08A81813029F4E8E3AF
:10069000F0E08FEF80831FC0E8E3F0E010821BC022
:1006A0008A81813029F4E5E3F0E08FEF808313C085
:1006B000E5E3F0E010820FC08A81813029F4E2E3A3
:1006C000F0E08FEF808307C0E2E3F0E0108203C028
:1006D00091E09D8301C01D828D810F900F900F903E
:1006E0000F900F90CF91DF910895DF93CF9300D0BB
:1006F0000F92CDB7DEB789836A838A81883018F07C
:1007000081E08B8360C089818823A1F4A9E3B0E0F4
:10071000E9E3F0E08081482F8A81282F30E081E0F2
:1007200090E0022E02C0880F991F0A94E2F78427F6
:100730008C9348C089818130A1F4A6E3B0E0E6E360
:10074000F0E08081482F8A81282F30E081E090E01E
:10075000022E02C0880F991F0A94E2F784278C9317
:1007600031C089818230A1F4A3E3B0E0E3E3F0E09B
:100770008081482F8A81282F30E081E090E0022E8E
:1007800002C0880F991F0A94E2F784278C931AC03D
:1007900089818330A1F4A0E3B0E0E0E3F0E0808160
:1007A000482F8A81282F30E081E090E0022E02C09D
:1007B000880F991F0A94E2F784278C9303C081E085
:1007C0008B8301C01B828B810F900F900F90CF9174
:1007D000DF910895DF93CF9300D0CDB7DEB71A82B3
:1007E00019821A821982A3C289819A81880F991F5E
:1007F000880F991FFC01E05AFF4F8081882309F080
:100800009BC089819A81880F991F0196880F991F33
:10081000FC01E05AFF4F80818130E9F4AAE3B0E0A7
:10082000EAE3F0E08081482F89819A81880F991F3F
:10083000880F991FFC01EF59FF4F8081282F30E06E
:1008400081E090E0022E02C0880F991F0A94E2F71F
:10085000842B8C9367C2AAE3B0E0EAE3F0E08081E6
:10086000482F89819A81880F991F880F991FFC0151
:10087000EF59FF4F8081282F30E081E090E0022E79
:1008800002C0880F991F0A94E2F7809584238C9305
:1008900089819A81880F991F880F991FFC01ED5952
:1008A000FF4F80818130E9F4ABE3B0E0EBE3F0E0AF
:1008B0008081482F89819A81880F991F880F991FFD
:1008C000FC01EF59FF4F8081282F30E081E090E05C
:1008D000022E02C0880F991F0A94E2F7842B8C9392
:1008E00021C289819A81880F991F880F991FFC0165
:1008F000ED59FF4F8081813009F014C2ABE3B0E0C5
:10090000EBE3F0E08081482F89819A81880F991F5D
:10091000880F991FFC01EF59FF4F8081282F30E08D
:1009200081E090E0022E02C0880F991F0A94E2F73E
:10093000809584238C93F6C189819A81880F991FB1
:10094000880F991FFC01E05AFF4F8081813009F028
:100950009BC089819A81880F991F0196880F991FE2
:10096000FC01E05AFF4F80818130E9F4A7E3B0E059
:10097000E7E3F0E08081482F89819A81880F991FF1
:10098000880F991FFC01EF59FF4F8081282F30E01D
:1009900081E090E0022E02C0880F991F0A94E2F7CE
:1009A000842B8C93BFC1A7E3B0E0E7E3F0E0808144
:1009B000482F89819A81880F991F880F991FFC0100
:1009C000EF59FF4F8081282F30E081E090E0022E28
:1009D00002C0880F991F0A94E2F7809584238C93B4
:1009E00089819A81880F991F880F991FFC01ED5901
:1009F000FF4F80818130E9F4A8E3B0E0E8E3F0E064
:100A00008081482F89819A81880F991F880F991FAB
:100A1000FC01EF59FF4F8081282F30E081E090E00A
:100A2000022E02C0880F991F0A94E2F7842B8C9340
:100A300079C189819A81880F991F880F991FFC01BC
:100A4000ED59FF4F8081813009F06CC1ABE3B0E01C
:100A5000EBE3F0E08081482F89819A81880F991F0C
:100A6000880F991FFC01EF59FF4F8081282F30E03C
:100A700081E090E0022E02C0880F991F0A94E2F7ED
:100A8000809584238C934EC189819A81880F991F08
:100A9000880F991FFC01E05AFF4F8081823009F0D6
:100AA0009BC089819A81880F991F0196880F991F91
:100AB000FC01E05AFF4F80818130E9F4A4E3B0E00B
:100AC000E4E3F0E08081482F89819A81880F991FA3
:100AD000880F991FFC01EF59FF4F8081282F30E0CC
:100AE00081E090E0022E02C0880F991F0A94E2F77D
:100AF000842B8C9317C1A4E3B0E0E4E3F0E08081A1
:100B0000482F89819A81880F991F880F991FFC01AE
:100B1000EF59FF4F8081282F30E081E090E0022ED6
:100B200002C0880F991F0A94E2F7809584238C9362
:100B300089819A81880F991F880F991FFC01ED59AF
:100B4000FF4F80818130E9F4A5E3B0E0E5E3F0E018
:100B50008081482F89819A81880F991F880F991F5A
:100B6000FC01EF59FF4F8081282F30E081E090E0B9
:100B7000022E02C0880F991F0A94E2F7842B8C93EF
:100B8000D1C089819A81880F991F880F991FFC0114
:100B9000ED59FF4F8081813009F0C4C0ABE3B0E074
:100BA000EBE3F0E08081482F89819A81880F991FBB
:100BB000880F991FFC01EF59FF4F8081282F30E0EB
:100BC00081E090E0022E02C0880F991F0A94E2F79C
:100BD000809584238C93A6C089819A81880F991F60
:100BE000880F991FFC01E05AFF4F8081833009F084
:100BF00099C089819A81880F991F0196880F991F42
:100C0000FC01E05AFF4F80818130E9F4A1E3B0E0BC
:100C1000E1E3F0E08081482F89819A81880F991F54
:100C2000880F991FFC01EF59FF4F8081282F30E07A
:100C300081E090E0022E02C0880F991F0A94E2F72B
:100C4000842B8C936FC0A1E3B0E0E1E3F0E08081FE
:100C5000482F89819A81880F991F880F991FFC015D
:100C6000EF59FF4F8081282F30E081E090E0022E85
:100C700002C0880F991F0A94E2F7809584238C9311
:100C800089819A81880F991F880F991FFC01ED595E
:100C9000FF4F80818130E9F4A2E3B0E0E2E3F0E0CD
:100CA0008081482F89819A81880F991F880F991F09
:100CB000FC01EF59FF4F8081282F30E081E090E068
:100CC000022E02C0880F991F0A94E2F7842B8C939E
:100CD00029C089819A81880F991F880F991FFC016B
:100CE000ED59FF4F80818130E9F4ABE3B0E0EBE3F5
:100CF000F0E08081482F89819A81880F991F880FA1
:100D0000991FFC01EF59FF4F8081282F30E081E0CF
:100D100090E0022E02C0880F991F0A94E2F7809596
:100D200084238C9389819A8101969A83898389810E
:100D30009A81843091050CF457CD80E00F900F908C
:100D4000CF91DF910895DF93CF9300D0CDB7DEB779
:100D50000E94EA0381E063E041E00E94410082E0FA
:100D600062E040E00E94410083E061E00E9499025D
:100D700083E061E00E94070382E062E09E012F5F52
:100D80003F4FA9010E941F029E012E5F3F4F80E04E
:100D900061E0A9010E941F028981813031F481E064
:100DA00063E041E00E94300105C081E063E040E083
:100DB0000E9430018A81813059F481E065E041E090
:100DC0000E94300182E067E041E00E943001D0CF14
:100DD00081E065E040E00E94300182E067E040E0B1
:0A0DE0000E943001C5CFF894FFCF48
:100DEA0000010000020701000105010000000000E7
:00000001FF
