:100000000C942A000C948C0D0C94BF0D0C94F20DE2
:100010000C9447000C9447000C9447000C94470044
:100020000C9447000C9447000C94AA0B0C94670B9B
:100030000C9447000C9447000C9447000C94470024
:100040000C9447000C9447000C9447000C94470014
:100050000C94470011241FBECFE5D8E0DEBFCDBF12
:1000600011E0A0E6B0E0E8E7F1E402C005900D92EF
:10007000AE3FB107D9F712E0AEEFB1E001C01D927B
:10008000A332B107E1F70E94E91E0C94BA200C9448
:100090000000EF92FF920F931F937B018C0120E0F1
:1000A00030E040E05FE40E94F50388238CF0C80153
:1000B000B70120E030E040E05FE40E94C1010E940F
:1000C000B3049B01AC01205030404040504806C072
:1000D000C801B7010E94B3049B01AC01B901CA0178
:1000E0001F910F91FF90EF900895A0E0B0E0EBE733
:1000F000F0E00C948320DC012B01FA019C919230FA
:1001000008F439C1EB018881823008F433C194309E
:1001100069F4843009F02FC111969C91119789815F
:10012000981709F428C1AFE6B0E025C1843009F47E
:1001300021C18230A9F4923009F01DC19A01AD01AC
:1001400088E0EA010990AE01E90109929E0181501F
:10015000C1F7E201898111969C918923818308C1AD
:10016000923009F407C112962D903C901397EB0141
:100170008A819B811496AD90BD90CD90DC901797AD
:10018000EC80FD800E811F819101281B390BB90184
:1001900037FF04C066277727621B730B6032710537
:1001A0000CF061C0121613066CF537014801062EDB
:1001B00004C096948794779467940A94D2F721E0C8
:1001C00030E040E050E004C0220F331F441F551FB1
:1001D0006A95D2F721503040404050402E213F21B7
:1001E00040235123211531054105510521F021E01E
:1001F00030E040E050E079018A01E628F72808293C
:1002000019293CC0232BD1F1260E371E350146019A
:10021000062E04C096948794779467940A94D2F734
:1002200021E030E040E050E004C0220F331F441FC3
:10023000551F6A95D2F721503040404050402A2146
:100240003B214C215D21211531054105510521F04E
:1002500021E030E040E050E059016A01A628B728CB
:10026000C828D9280BC0821593052CF01C01AA249C
:10027000BB24650103C0EE24FF24870111969C91E5
:10028000D20111968C91981709F445C0992339F041
:10029000A80197012A193B094C095D0906C0A6016E
:1002A00095012E193F09400B510B57FD08C01182D3
:1002B0003382228224833583468357831DC081E0A5
:1002C00081833382228288279927DC01821B930B4A
:1002D000A40BB50B84839583A683B7830DC0220F2F
:1002E000331F441F551F24833583468357838281E0
:1002F000938101979383828324813581468157813D
:10030000DA01C9010197A109B1098F5F9F4FAF4F72
:10031000BF4328F30BC0918333822282EA0CFB1C7B
:100320000C1D1D1DE482F5820683178383E0808304
:10033000248135814681578157FF1AC0C901AA27F8
:1003400097FDA095BA2F81709070A070B0705695EF
:10035000479537952795822B932BA42BB52B848318
:100360009583A683B7838281938101969383828349
:10037000DF0101C0D201CD01CDB7DEB7E2E10C94BF
:100380009F20A0E2B0E0E7ECF1E00C948F206983BD
:100390007A838B839C832D833E834F835887E9E048
:1003A000EE2EF12CEC0EFD1ECE010196B7010E943F
:1003B000A4068E010F5E1F4FCE010596B8010E9464
:1003C000A4068A8991E089278A8BC701B801AE010A
:1003D000475E5F4F0E9475000E94CF05A096E6E041
:1003E0000C94AB20A0E2B0E0E8EFF1E00C948F2099
:1003F00069837A838B839C832D833E834F835887C5
:10040000F9E0EF2EF12CEC0EFD1ECE010196B701A6
:100410000E94A4068E010F5E1F4FCE010596B80103
:100420000E94A406C701B801AE01475E5F4F0E945B
:1004300075000E94CF05A096E6E00C94AB20A0E2E8
:10044000B0E0E5E2F2E00C94832069837A838B8349
:100450009C832D833E834F835887CE010196BE0136
:10046000675F7F4F0E94A406CE010596BE016F5EB6
:100470007F4F0E94A4069985923088F08989823046
:10048000C8F0943019F4823051F404C0843029F457
:10049000923081F48FE690E0C6C0923049F420E0BB
:1004A0009A858A89981321E02A87CE010996BBC0D4
:1004B000823049F420E09A858A89981321E02A8BBA
:1004C000CE014196B0C02D843E844F8458886D88FB
:1004D0007E888F88988CEE24FF248701AA24BB2471
:1004E000650140E050E060E070E0E0E0F0E0C10174
:1004F00081709070892BE9F0E60CF71C081D191D1E
:100500009A01AB012A0D3B1D4C1D5D1D80E090E062
:10051000A0E0B0E0E614F7040805190520F481E036
:1005200090E0A0E0B0E0BA01A901480F591F6A1F8E
:100530007B1FAA0CBB1CCC1CDD1C97FE08C081E0F5
:1005400090E0A0E0B0E0A82AB92ACA2ADB2A3196B6
:10055000E032F10549F0660C771C881C991C569412
:10056000479437942794C3CFFA85EA892B893C892D
:100570008B859C85280F391F2E5F3F4F17C0CA01FE
:1005800081709070892B61F016950795F794E79428
:1005900080E090E0A0E0B0E8E82AF92A0A2B1B2BC3
:1005A00076956795579547952F5F3F4F77FDE7CF36
:1005B0000CC0440F551F661F771F17FD4160EE0CDE
:1005C000FF1C001F111F21503040403090E05907A0
:1005D00090E0690790E4790760F32B8F3C8FDB0193
:1005E000CA018F779070A070B07080349105A1051A
:1005F000B10561F447FD0AC0E114F10401051105DC
:1006000029F0405C5F4F6F4F7F4F40781A8EFE1786
:1006100011F081E08A8F4D8F5E8F6F8F78A383E01A
:10062000898FCE0149960E94CF05A096E2E10C94F5
:100630009F20A8E1B0E0EFE1F3E00C948B20698308
:100640007A838B839C832D833E834F835887B9E0C5
:10065000EB2EF12CEC0EFD1ECE010196B7010E948F
:10066000A4068E010F5E1F4FCE010596B8010E94B1
:10067000A4062985223008F47EC03989323010F46E
:10068000B8017CC08A859A8989278A87243011F02D
:10069000223031F4231709F06EC06FE670E06EC0AF
:1006A000343039F41D861E861F86188A1C861B86E8
:1006B00004C0323021F484E08987B7015FC02B8504
:1006C0003C858B899C89281B390B3C872B87ED84C3
:1006D000FE840F851889AD88BE88CF88D88CEA142F
:1006E000FB040C051D0540F4EE0CFF1C001F111F40
:1006F000215030403C872B8720E030E040E050E044
:1007000080E090E0A0E0B0E460E070E0EA14FB0478
:100710000C051D0540F0282B392B4A2B5B2BEA18C2
:10072000FB080C091D09B695A79597958795EE0CC2
:10073000FF1C001F111F6F5F7F4F6F31710531F775
:10074000DA01C9018F779070A070B0708034910584
:10075000A105B10561F427FD0AC0E114F10401050A
:10076000110529F0205C3F4F4F4F5F4F20782D87B8
:100770003E874F87588BBE01675F7F4FCB010E943A
:10078000CF056896EAE00C94A720A8E1B0E0EBEC76
:10079000F3E00C948F2069837A838B839C832D8371
:1007A0003E834F83588789E0E82EF12CEC0EFD1E26
:1007B000CE010196B7010E94A4068E010F5E1F4F65
:1007C000CE010596B8010E94A4068985823040F0CA
:1007D0008989823028F0C701B8010E941C0701C036
:1007E0008FEF6896E6E00C94AB20A8E1B0E0EBEF69
:1007F000F3E00C948F2069837A838B839C832D8311
:100800003E834F83588789E0E82EF12CEC0EFD1EC5
:10081000CE010196B7010E94A4068E010F5E1F4F04
:10082000CE010596B8010E94A4068985823040F069
:100830008989823028F0C701B8010E941C0701C0D5
:100840008FEF6896E6E00C94AB20A8E1B0E0EBE215
:10085000F4E00C948F2069837A838B839C832D83AF
:100860003E834F83588789E0E82EF12CEC0EFD1E65
:10087000CE010196B7010E94A4068E010F5E1F4FA4
:10088000CE010596B8010E94A4068985823040F009
:100890008989823028F0C701B8010E941C0701C075
:1008A00081E06896E6E00C94AB20A8E0B0E0EBE5D0
:1008B000F4E00C948C209B01AC0183E08983DA0185
:1008C000C9018827B7FD83959927AA27BB27B82E8A
:1008D000211531054105510519F482E089833AC09B
:1008E0008823A9F0203080E0380780E0480780E8BE
:1008F000580729F460E070E080E09FEC30C0EE24FF
:10090000FF248701E21AF30A040B150B02C07901D8
:100910008A018EE1C82ED12CDC82CB82ED82FE8250
:100920000F831887C801B7010E9480050197181628
:10093000190684F4082E04C0EE0CFF1C001F111FC2
:100940000A94D2F7ED82FE820F831887C81AD90A5B
:10095000DC82CB82BA82CE0101960E94CF05289616
:10096000E9E00C94A820ACE0B0E0E9EBF4E00C94F2
:10097000932069837A838B839C83CE010196BE0189
:100980006B5F7F4F0E94A4068D81823061F18230BF
:1009900050F1843021F48E81882351F12EC02F81B3
:1009A000388537FD20C06E812F3131051CF066235C
:1009B000F9F023C08EE190E0821B930B29853A85E4
:1009C0004B855C8504C056954795379527958A9544
:1009D000D2F76623B1F050954095309521953F4F61
:1009E0004F4F5F4F0EC020E030E040E050E009C0C4
:1009F0002FEF3FEF4FEF5FE704C020E030E040E033
:100A000050E8B901CA012C96E2E00C94AF20A8E0AE
:100A1000B0E0EDE0F5E00C948B207B018C016115DA
:100A200071058105910519F482E0898360C083E036
:100A300089838EE1C82ED12CDC82CB82ED82FE82AE
:100A40000F831887C801B7010E948005FC01319708
:100A5000F7FF3BC0222733272E1B3F0B57016801AE
:100A6000022E04C0D694C794B794A7940A94D2F7E0
:100A700040E050E060E070E081E090E0A0E0B0E0B5
:100A800004C0880F991FAA1FBB1F2A95D2F7019790
:100A9000A109B1098E219F21A023B1230097A105AF
:100AA000B10521F041E050E060E070E04A295B29A7
:100AB0006C297D294D835E836F8378878EE190E07A
:100AC0008E1B9F0B9C838B8312C0309781F00E2E60
:100AD00004C0EE0CFF1C001F111F0A94D2F7ED8218
:100AE000FE820F831887CE1ADF0ADC82CB821A823D
:100AF000CE0101960E94CF052896EAE00C94A7202B
:100B0000EF92FF920F931F937B018C0180E0E81618
:100B100080E0F80681E0080780E0180788F48FEF8E
:100B2000E816F1040105110531F028F088E090E0A5
:100B3000A0E0B0E017C080E090E0A0E0B0E012C01C
:100B400080E0E81680E0F80680E0080781E01807FA
:100B500028F088E190E0A0E0B0E004C080E190E0FF
:100B6000A0E0B0E020E230E040E050E0281B390B8C
:100B70004A0B5B0B04C016950795F794E7948A958A
:100B8000D2F7F701E958FF4F8081281B310941094D
:100B90005109C9011F910F91FF90EF900895DF92C5
:100BA000EF92FF920F931F93FC01E480F580068182
:100BB0001781D1808081823048F480E090E0A0E10C
:100BC000B0E0E82AF92A0A2B1B2BA5C0843009F4CF
:100BD0009FC0823021F4EE24FF24870105C0E11478
:100BE000F1040105110519F4E0E0F0E096C062811E
:100BF00073819FEF623879070CF05BC022E83FEF0A
:100C0000261B370B2A3131052CF020E030E040E084
:100C100050E02AC0B801A701022E04C0769567955E
:100C2000579547950A94D2F781E090E0A0E0B0E0B4
:100C300004C0880F991FAA1FBB1F2A95D2F70197DE
:100C4000A109B1098E219F21A023B1230097A105FD
:100C5000B10521F081E090E0A0E0B0E09A01AB01A5
:100C6000282B392B4A2B5B2BDA01C9018F77907027
:100C7000A070B07080349105A105B10539F427FF4B
:100C800009C0205C3F4F4F4F5F4F04C0215C3F4F76
:100C90004F4F5F4FE0E0F0E02030A0E03A07A0E0E7
:100CA0004A07A0E45A0710F0E1E0F0E079018A0178
:100CB00027C06038710564F5FB01E158FF4FD8018A
:100CC000C7018F779070A070B07080349105A10536
:100CD000B10539F4E7FE0DC080E490E0A0E0B0E09B
:100CE00004C08FE390E0A0E0B0E0E80EF91E0A1F18
:100CF0001B1F17FF05C016950795F794E7943196CB
:100D000087E016950795F794E7948A95D1F705C083
:100D1000EE24FF248701EFEFF0E06E2F6795662742
:100D20006795902F9F77D794DD24D7948E2F869543
:100D3000492F462B582F5D29B701CA011F910F91EA
:100D4000FF90EF90DF900895FC01DB01408151811D
:100D50002281622F6F7770E0221F2227221F93814A
:100D6000892F880F822B282F30E0991F9927991FF0
:100D700011969C93119721153105A9F5411551053F
:100D80006105710511F482E037C082E89FEF139688
:100D90009C938E9312979A01AB0167E0220F331F49
:100DA000441F551F6A95D1F783E08C930DC0220F25
:100DB000331F441F551F12968D919C9113970197D5
:100DC00013969C938E931297203080E0380780E032
:100DD000480780E4580758F314962D933D934D939C
:100DE0005C93179708952F3F310579F4411551050C
:100DF0006105710519F484E08C93089564FF03C0C4
:100E000081E08C9312C01C9210C02F573040139673
:100E10003C932E93129783E08C9387E0440F551FE9
:100E2000661F771F8A95D1F7706414964D935D9372
:100E30006D937C93179708951F93DC01FB019C91A0
:100E4000923008F447C08081823008F443C0943067
:100E500051F411961C91843099F58181682F70E0CE
:100E6000611B71093FC0843021F0923031F482302F
:100E7000B9F18181882389F12DC011961C911197B8
:100E80008230F1F081811817D9F412962D913C919E
:100E90001397828193818217930794F0281739075B
:100EA000BCF014968D919D910D90BC91A02D248144
:100EB000358146815781281739074A075B0718F49F
:100EC000112341F00AC082179307A407B50740F425
:100ED000112319F061E070E005C06FEF7FEF02C0F1
:100EE00060E070E0CB011F910895DF93CF93CDB701
:100EF000DEB72A970FB6F894DEBF0FBECDBF9B8337
:100F00008A8381E089838A819B81009719F481E03B
:100F10008983BBC08A819B812EE032E03F832E8390
:100F20009987888735E03A87E885F98500802885A4
:100F300039852F5F3F4F39872887EE81FF810082F7
:100F40002E813F812F5F3F4F3F832E833A85315063
:100F50003A878A85882341F7EA81FB818081843042
:100F600008F05EC01982EA81FB818081E82FF0E001
:100F7000FD83EC832C813D812130310521F18C8171
:100F80009D81823091052CF4EC81FD81309761F0D8
:100F900049C02C813D812230310521F18C819D8118
:100FA0008330910571F13EC0A3E5B0E0E3E5F0E0E8
:100FB00080818F7B8C93A3E5B0E0E3E5F0E0808156
:100FC000877F8C932FC0A3E5B0E0E3E5F0E080815C
:100FD00080648C93A3E5B0E0E3E5F0E08081877F57
:100FE0008C9320C0A3E5B0E0E3E5F0E080818F7B47
:100FF0008C93A3E5B0E0E3E5F0E0808188608C931A
:1010000011C0A3E5B0E0E3E5F0E0808180648C935B
:10101000A3E5B0E0E3E5F0E0808188608C9302C056
:1010200081E08983EA81FB818181883058F4A3E5DE
:10103000B0E0E3E5F0E09081EA81FB818181892BDA
:101040008C9302C081E08983A3E5B0E0E3E5F0E0A2
:101050008081282FEA81FB818281882F90E0829510
:101060009295907F9827807F9827822B8C93A9E573
:10107000B0E0E9E5F0E02081EA81FB819381EA813B
:10108000FB818481892B822B8C9389812A960FB6D0
:10109000F894DEBF0FBECDBFCF91DF910895DF93EF
:1010A000CF93CDB7DEB7A3E5B0E0E3E5F0E0808114
:1010B0008E7F8C93A3E5B0E0E3E5F0E080818D7F47
:1010C0008C93A3E5B0E0E3E5F0E080818B7F8C9327
:1010D00080E0CF91DF910895DF93CF9300D0CDB71B
:1010E000DEB79A838983ECE5F0E08081E981FA81BB
:1010F000808380E00F900F90CF91DF910895DF9370
:10110000CF930F92CDB7DEB78983ECE5F0E089810C
:10111000808380E00F90CF91DF910895DF93CF938C
:1011200000D0CDB7DEB79A838983E2E5F0E0808115
:10113000E981FA81808380E00F900F90CF91DF9159
:101140000895DF93CF930F92CDB7DEB78983E2E5A1
:10115000F0E08981808380E00F90CF91DF91089546
:10116000DF93CF9300D0CDB7DEB79A838983809188
:10117000030290910402A0910502B0910602E98158
:10118000FA81808380E00F900F90CF91DF910895D6
:101190000F931F93DF93CF9300D000D00F92CDB762
:1011A000DEB76A837B838C839D8380910E028330BC
:1011B00029F080910E02813009F057C08091100211
:1011C000823011F50CE510E06A817B818C819D8174
:1011D00020E030E048EC52E40E941903DC01CB012E
:1011E000BC01CD0120E030E040E853E40E941F0242
:1011F000DC01CB01BC01CD010E944900DC01CB0127
:101200008150F80180832FC080911002833059F5FE
:101210000CE510E06A817B818C819D8120E030E0CB
:1012200040E853E40E941F02DC01CB01BC01CD0168
:1012300020E030E048EC52EC0E941903DC01CB01C5
:10124000BC01CD0120E030E040E853E40E94F2010F
:10125000DC01CB01BC01CD010E944900DC01CB01C6
:101260008150F8018083198202C081E089838981DD
:101270000F900F900F900F900F90CF91DF911F91D3
:101280000F910895DF93CF93CDB7DEB767970FB671
:10129000F894DEBF0FBECDBF6D877E878F87988B9A
:1012A0009E01285F3F4F3C8B2B8B87ED91E09E8BFF
:1012B0008D8B95E09F8BED89FE8900802D893E897D
:1012C0002F5F3F4F3E8B2D8BEB89FC8900822B8952
:1012D0003C892F5F3F4F3C8B2B8B3F8931503F8B9D
:1012E0008F89882341F7CE0108960E9475071F82D7
:1012F0001E828985E82FF0E0FA8BE98B29893A89EB
:101300002330310549F189899A89843091057CF42B
:10131000E989FA89E130F10549F129893A892230D0
:101320003105FCF489899A89009729F126C0E98959
:10133000FA89E530F10531F029893A8925303105FE
:1013400034F01BC080E094E09F838E8316C080E061
:1013500091E09F838E8311C080E490E09F838E8311
:101360000CC088E090E09F838E8307C081E090E00E
:101370009F838E8302C01F821E828E819F81CC013B
:10138000A0E0B0E028EE33E040E050E0BC01CD0149
:101390000E9442209B01AC0180E094E2A4EFB0E007
:1013A000BC01CD010E946120DA01C9012D853E8575
:1013B0004F855889BC01CD010E944220DC01CB0140
:1013C0008A839B83AC83BD838A819B81AC81BD81F1
:1013D000892F9A2FAB2FBB2780930302909304028F
:1013E000A0930502B09306028A81898380E00E945F
:1013F000A1088091030290910402A0910502B0918E
:1014000006020097A105B105A1F7E2E5F0E09081A1
:1014100089819817D0F30E944F08A9E5B0E0E9E56B
:10142000F0E080818E7F8C9367960FB6F894DEBFD4
:101430000FBECDBFCF91DF910895DF93CF9300D042
:10144000CDB7DEB79A83898389819A819093FF0112
:101450008093FE010F900F90CF91DF910895DF935D
:10146000CF9300D0CDB7DEB79A83898389819A81E3
:1014700090930102809300020F900F90CF91DF9123
:101480000895DF93CF93CDB7DEB72A970FB6F894C0
:10149000DEBF0FBECDBF9B838A8381E089838A81B3
:1014A0009B81009719F481E08983EAC08A819B813E
:1014B00023E132E03F832E839987888738E03A879B
:1014C000E885F9850080288539852F5F3F4F39876A
:1014D0002887EE81FF8100822E813F812F5F3F4F61
:1014E0003F832E833A8531503A878A85882341F796
:1014F000EA81FB818081833008F06FC01982EA8124
:10150000FB818081E82FF0E0FD83EC832C813D811D
:101510002130310541F18C819D818230910509F4A2
:101520003FC0EC81FD81309709F059C0AFE4B0E0D5
:10153000EFE4F0E080818E7F8C93AFE4B0E0EFE4E5
:10154000F0E080818D7F8C93AEE4B0E0EEE4F0E0DB
:101550008081877F8C93AEE4B0E0EEE4F0E08081A0
:101560008F7E8C933CC0AFE4B0E0EFE4F0E080818C
:101570008E7F8C93AFE4B0E0EFE4F0E08081826096
:101580008C93AEE4B0E0EEE4F0E0808188608C9370
:10159000AEE4B0E0EEE4F0E0808180618C931FC0A7
:1015A000AFE4B0E0EFE4F0E0808181608C93AFE4E1
:1015B000B0E0EFE4F0E0808182608C93AEE4B0E0D4
:1015C000EEE4F0E0808188608C93AEE4B0E0EEE47D
:1015D000F0E0808180618C9302C081E08983EA81A0
:1015E000FB818181883058F4AEE4B0E0EEE4F0E0B5
:1015F0009081EA81FB818181892B8C9302C081E0FB
:101600008983AFE4B0E0EFE4F0E08081282FEA8145
:10161000FB818281882F90E000249695879507941E
:10162000969587950794982F802D822B8C93AFE405
:10163000B0E0EFE4F0E08081282FEA81FB81838134
:10164000882F90E082959295907F9827807F9827A9
:10165000822B8C93A9E5B0E0E9E5F0E02081EA81F6
:10166000FB819481EA81FB818581982BEA81FB8152
:101670008681982BEA81FB818781892B822B8C9331
:1016800089812A960FB6F894DEBF0FBECDBFCF91E9
:10169000DF910895DF93CF93CDB7DEB7AEE4B0E02E
:1016A000EEE4F0E080818E7F8C93AEE4B0E0EEE477
:1016B000F0E080818D7F8C93AEE4B0E0EEE4F0E06A
:1016C00080818B7F8C9380E0CF91DF9108951F9272
:1016D0000F920FB60F9211248F939F93AF93BF93E6
:1016E000EF93FF93DF93CF93CDB7DEB780910302E3
:1016F00090910402A0910502B09106020097A10505
:10170000B105A1F08091030290910402A09105021D
:10171000B09106020197A109B10980930302909349
:101720000402A0930502B093060207C0A9E5B0E049
:10173000E9E5F0E080818E7F8C93CF91DF91FF917E
:10174000EF91BF91AF919F918F910F900FBE0F902E
:101750001F9018951F920F920FB60F9211242F937E
:101760003F934F935F936F937F938F939F93AF9329
:10177000BF93EF93FF93DF93CF93CDB7DEB7809105
:10178000000290910102009729F0E0910002F0918F
:1017900001020995CF91DF91FF91EF91BF91AF9138
:1017A0009F918F917F916F915F914F913F912F9179
:1017B0000F900FBE0F901F901895DF93CF9300D01E
:1017C00000D00F92CDB7DEB789837B836A8389818E
:1017D000282F30E03D832C838C819D8181309105C1
:1017E00081F02C813D812230310591F08C819D81E9
:1017F0000097A1F48A819B8190930902809308024B
:101800000DC08A819B8190930B0280930A0206C0CF
:101810008A819B8190930D0280930C020F900F9010
:101820000F900F900F90CF91DF910895DF93CF939A
:1018300000D00F92CDB7DEB789838981282F30E0A1
:101840003B832A838A819B818130910589F02A819B
:101850003B8122303105A1F08A819B810097B9F448
:10186000ABE5B0E0EBE5F0E0808180648C930FC0E5
:10187000ABE5B0E0EBE5F0E0808180688C9307C0D9
:10188000ABE5B0E0EBE5F0E0808180628C930F90F7
:101890000F900F90CF91DF910895DF93CF9300D0F9
:1018A0000F92CDB7DEB789838981282F30E03B8343
:1018B0002A838A819B818130910589F02A813B812D
:1018C00022303105A1F08A819B810097B9F4ABE504
:1018D000B0E0EBE5F0E080818F7B8C930FC0ABE54F
:1018E000B0E0EBE5F0E080818F778C9307C0ABE54B
:1018F000B0E0EBE5F0E080818F7D8C930F900F904E
:101900000F90CF91DF910895DF93CF93CDB7DEB7DE
:101910002A970FB6F894DEBF0FBECDBF89836A83C6
:101920008981282F30E03A87298789859A858130F7
:10193000910509F466C029853A852230310509F4FC
:10194000BBC089859A85009709F0DDC08A81282F60
:1019500030E038872F838F8198858130910521F180
:101960002F813885223031052CF48F81988500979E
:1019700061F0C9C02F8138852230310521F18F8176
:1019800098858330910571F1BEC0A5E5B0E0E5E52D
:10199000F0E080818E7F8C93A5E5B0E0E5E5F0E096
:1019A00080818D7F8C93AFC0A5E5B0E0E5E5F0E0E8
:1019B000808181608C93A5E5B0E0E5E5F0E0808171
:1019C0008D7F8C93A0C0A5E5B0E0E5E5F0E08081D7
:1019D0008E7F8C93A5E5B0E0E5E5F0E08081826044
:1019E0008C9391C0A5E5B0E0E5E5F0E080818160F1
:1019F0008C93A5E5B0E0E5E5F0E0808182608C9312
:101A000082C08A81282F30E03E832D838D819E8184
:101A10008130910521F12D813E81223031052CF458
:101A20008D819E81009761F06EC02D813E812230B4
:101A3000310521F18D819E818330910571F163C063
:101A4000A5E5B0E0E5E5F0E080818B7F8C93A5E52E
:101A5000B0E0E5E5F0E08081877F8C9354C0A5E598
:101A6000B0E0E5E5F0E0808184608C93A5E5B0E02E
:101A7000E5E5F0E08081877F8C9345C0A5E5B0E087
:101A8000E5E5F0E080818B7F8C93A5E5B0E0E5E5AE
:101A9000F0E0808188608C9336C0A5E5B0E0E5E594
:101AA000F0E0808184608C93A5E5B0E0E5E5F0E0AE
:101AB000808188608C9327C08A81282F30E03C8306
:101AC0002B838B819C818230910531F02B813C816D
:101AD0002330310549F010C0A4E5B0E0E4E5F0E0C2
:101AE00080818F7B8C930FC0A4E5B0E0E4E5F0E04B
:101AF000808180648C9307C0A4E5B0E0E4E5F0E069
:101B000080818F7B8C932A960FB6F894DEBF0FBE30
:101B1000CDBFCF91DF9108951F920F920FB60F9214
:101B200011242F933F934F935F936F937F938F93E2
:101B30009F93AF93BF93EF93FF93DF93CF93CDB773
:101B4000DEB78091080290910902009729F0E09198
:101B50000802F09109020995CF91DF91FF91EF9171
:101B6000BF91AF919F918F917F916F915F914F91B5
:101B70003F912F910F900FBE0F901F9018951F92BD
:101B80000F920FB60F9211242F933F934F935F93B1
:101B90006F937F938F939F93AF93BF93EF93FF9335
:101BA000DF93CF93CDB7DEB780910A0290910B02FD
:101BB000009729F0E0910A02F0910B020995CF916C
:101BC000DF91FF91EF91BF91AF919F918F917F91A5
:101BD0006F915F914F913F912F910F900FBE0F909A
:101BE0001F9018951F920F920FB60F9211242F93EA
:101BF0003F934F935F936F937F938F939F93AF9395
:101C0000BF93EF93FF93DF93CF93CDB7DEB7809170
:101C10000C0290910D02009729F0E0910C02F091D6
:101C20000D020995CF91DF91FF91EF91BF91AF9197
:101C30009F918F917F916F915F914F913F912F91E4
:101C40000F900FBE0F901F901895DF93CF9300D089
:101C500000D0CDB7DEB789836A834B838A81883011
:101C600018F081E08C83D8C08981882391F58B811D
:101C70008130A1F4AAE3B0E0EAE3F0E08081482FEC
:101C80008A81282F30E081E090E0022E02C0880F88
:101C9000991F0A94E2F7842B8C93BDC08B81882313
:101CA000A9F4AAE3B0E0EAE3F0E08081482F8A815A
:101CB000282F30E081E090E0022E02C0880F991FAB
:101CC0000A94E2F7809584238C93A5C081E08C83ED
:101CD000A3C08981813091F58B818130A1F4A7E384
:101CE000B0E0E7E3F0E08081482F8A81282F30E0E0
:101CF00081E090E0022E02C0880F991F0A94E2F75B
:101D0000842B8C9388C08B818823A9F4A7E3B0E04F
:101D1000E7E3F0E08081482F8A81282F30E081E0DE
:101D200090E0022E02C0880F991F0A94E2F7809576
:101D300084238C9370C081E08C836EC08981823053
:101D400091F58B818130A1F4A4E3B0E0E4E3F0E00D
:101D50008081482F8A81282F30E081E090E0022E98
:101D600002C0880F991F0A94E2F7842B8C9353C00A
:101D70008B818823A9F4A4E3B0E0E4E3F0E0808160
:101D8000482F8A81282F30E081E090E0022E02C0A7
:101D9000880F991F0A94E2F7809584238C933BC0A7
:101DA00081E08C8339C08981833091F58B818130CA
:101DB000A1F4A1E3B0E0E1E3F0E08081482F8A8163
:101DC000282F30E081E090E0022E02C0880F991F9A
:101DD0000A94E2F7842B8C931EC08B818823A9F48C
:101DE000A1E3B0E0E1E3F0E08081482F8A81282F71
:101DF00030E081E090E0022E02C0880F991F0A9423
:101E0000E2F7809584238C9306C081E08C8304C024
:101E100081E08C8301C01C828C810F900F900F9009
:101E20000F90CF91DF910895DF93CF9300D000D032
:101E3000CDB7DEB789836A834B838A81883018F0F7
:101E400081E08C83D8C08981882391F58B81813092
:101E5000A1F4ABE3B0E0EBE3F0E08081482F8A81AE
:101E6000282F30E081E090E0022E02C0880F991FF9
:101E70000A94E2F7842B8C93BDC08B818823A9F44C
:101E8000ABE3B0E0EBE3F0E08081482F8A81282FBC
:101E900030E081E090E0022E02C0880F991F0A9482
:101EA000E2F7809584238C93A5C081E08C83A3C046
:101EB0008981813091F58B818130A1F4A8E3B0E074
:101EC000E8E3F0E08081482F8A81282F30E081E02C
:101ED00090E0022E02C0880F991F0A94E2F7842B2B
:101EE0008C9388C08B818823A9F4A8E3B0E0E8E351
:101EF000F0E08081482F8A81282F30E081E090E057
:101F0000022E02C0880F991F0A94E2F7809584235D
:101F10008C9370C081E08C836EC08981823091F592
:101F20008B818130A1F4A5E3B0E0E5E3F0E08081AE
:101F3000482F8A81282F30E081E090E0022E02C0F5
:101F4000880F991F0A94E2F7842B8C9353C08B81DE
:101F50008823A9F4A5E3B0E0E5E3F0E08081482F11
:101F60008A81282F30E081E090E0022E02C0880FA5
:101F7000991F0A94E2F7809584238C933BC081E0FB
:101F80008C8339C08981833091F58B818130A1F4B4
:101F9000A2E3B0E0E2E3F0E08081482F8A81282FBD
:101FA00030E081E090E0022E02C0880F991F0A9471
:101FB000E2F7842B8C931EC08B818823A9F4A2E3C3
:101FC000B0E0E2E3F0E08081482F8A81282F30E002
:101FD00081E090E0022E02C0880F991F0A94E2F778
:101FE000809584238C9306C081E08C8304C081E0BB
:101FF0008C8301C01C828C810F900F900F900F90EA
:10200000CF91DF910895DF93CF9300D000D00F924E
:10201000CDB7DEB789836A835C834B838A8188303E
:1020200018F041E04D8360C089818823A1F4E9E381
:10203000F0E08081282F30E08A81882F90E0A9018C
:1020400002C0559547958A95E2F7CA018170EB81E8
:10205000FC81808348C089818130A1F4E6E3F0E00F
:102060008081282F30E08A81882F90E0A90102C06A
:10207000559547958A95E2F7CA018170EB81FC81FD
:10208000808331C089818230A1F4E3E3F0E0808174
:10209000282F30E08A81882F90E0A90102C0559551
:1020A00047958A95E2F7CA018170EB81FC818083B4
:1020B0001AC089818330A1F4E0E3F0E08081282F09
:1020C00030E08A81882F90E0A90102C0559547959C
:1020D0008A95E2F7CA018170EB81FC81808303C09D
:1020E00051E05D8301C01D828D810F900F900F9094
:1020F0000F900F90CF91DF910895DF93CF9300D091
:1021000000D00F92CDB7DEB789836A838A81813090
:1021100031F08A81813019F021E02D8353C089810B
:10212000282F30E03C832B838B819C81813091056B
:1021300009F12B813C81223031052CF48B819C816B
:10214000009761F03BC02B813C8122303105F1F0DA
:102150008B819C818330910529F130C08A81813047
:1021600029F4EAE3F0E08FEF80832BC0EAE3F0E0AC
:10217000108227C08A81813029F4E7E3F0E08FEFF5
:1021800080831FC0E7E3F0E010821BC08A818130AA
:1021900029F4E4E3F0E08FEF808313C0E4E3F0E0A0
:1021A00010820FC08A81813029F4E1E3F0E08FEFE3
:1021B000808307C0E1E3F0E0108203C091E09D83DB
:1021C00001C01D828D810F900F900F900F900F9086
:1021D000CF91DF910895DF93CF9300D000D00F927D
:1021E000CDB7DEB789836A838A81813031F08A81F5
:1021F000882319F021E02D8353C08981282F30E0F6
:102200003C832B838B819C818130910509F12B814B
:102210003C81223031052CF48B819C81009761F048
:102220003BC02B813C8122303105F1F08B819C81B8
:102230008330910529F130C08A81813029F4EBE3A4
:10224000F0E08FEF80832BC0EBE3F0E0108227C03B
:102250008A81813029F4E8E3F0E08FEF80831FC0AA
:10226000E8E3F0E010821BC08A81813029F4E5E3C5
:10227000F0E08FEF808313C0E5E3F0E010820FC041
:102280008A81813029F4E2E3F0E08FEF808307C098
:10229000E2E3F0E0108203C091E09D8301C01D8263
:1022A0008D810F900F900F900F900F90CF91DF9135
:1022B0000895DF93CF9300D00F92CDB7DEB7898317
:1022C0006A838A81883018F081E08B8360C08981BD
:1022D0008823A1F4ABE3B0E0EBE3F0E08081482F8A
:1022E0008A81282F30E081E090E0022E02C0880F22
:1022F000991F0A94E2F784278C9348C08981813022
:10230000A1F4A8E3B0E0E8E3F0E08081482F8A81FF
:10231000282F30E081E090E0022E02C0880F991F44
:102320000A94E2F784278C9331C089818230A1F42A
:10233000A5E3B0E0E5E3F0E08081482F8A81282F13
:1023400030E081E090E0022E02C0880F991F0A94CD
:10235000E2F784278C931AC089818330A1F4A2E329
:10236000B0E0E2E3F0E08081482F8A81282F30E05E
:1023700081E090E0022E02C0880F991F0A94E2F7D4
:1023800084278C9303C081E08B8301C01B828B81E7
:102390000F900F900F90CF91DF910895DF93CF931F
:1023A00000D0CDB7DEB71A8219821A821982A3C271
:1023B00089819A81880F991F880F991FFC01E9581C
:1023C000FE4F8081882309F09BC089819A81880F04
:1023D000991F0196880F991FFC01E958FE4F8081D3
:1023E0008130E9F4AAE3B0E0EAE3F0E08081482F2D
:1023F00089819A81880F991F880F991FFC01E858DD
:10240000FE4F8081282F30E081E090E0022E02C054
:10241000880F991F0A94E2F7842B8C9367C2AAE372
:10242000B0E0EAE3F0E08081482F89819A81880F4B
:10243000991F880F991FFC01E858FE4F8081282FB3
:1024400030E081E090E0022E02C0880F991F0A94CC
:10245000E2F7809584238C9389819A81880F991F54
:10246000880F991FFC01E658FE4F80818130E9F406
:10247000ABE3B0E0EBE3F0E08081482F89819A8103
:10248000880F991F880F991FFC01E858FE4F808123
:10249000282F30E081E090E0022E02C0880F991FC3
:1024A0000A94E2F7842B8C9321C289819A81880F48
:1024B000991F880F991FFC01E658FE4F80818823E1
:1024C00009F014C2ABE3B0E0EBE3F0E08081482F09
:1024D00089819A81880F991F880F991FFC01E858FC
:1024E000FE4F8081282F30E081E090E0022E02C074
:1024F000880F991F0A94E2F7809584238C93F6C184
:1025000089819A81880F991F880F991FFC01E958CA
:10251000FE4F8081813009F09BC089819A81880FAC
:10252000991F0196880F991FFC01E958FE4F808181
:102530008130E9F4A7E3B0E0E7E3F0E08081482FE1
:1025400089819A81880F991F880F991FFC01E8588B
:10255000FE4F8081282F30E081E090E0022E02C003
:10256000880F991F0A94E2F7842B8C93BFC1A7E3CD
:10257000B0E0E7E3F0E08081482F89819A81880FFD
:10258000991F880F991FFC01E858FE4F8081282F62
:1025900030E081E090E0022E02C0880F991F0A947B
:1025A000E2F7809584238C9389819A81880F991F03
:1025B000880F991FFC01E658FE4F80818130E9F4B5
:1025C000A8E3B0E0E8E3F0E08081482F89819A81B8
:1025D000880F991F880F991FFC01E858FE4F8081D2
:1025E000282F30E081E090E0022E02C0880F991F72
:1025F0000A94E2F7842B8C9379C189819A81880FA0
:10260000991F880F991FFC01E658FE4F808188238F
:1026100009F06CC1ABE3B0E0EBE3F0E08081482F60
:1026200089819A81880F991F880F991FFC01E858AA
:10263000FE4F8081282F30E081E090E0022E02C022
:10264000880F991F0A94E2F7809584238C934EC1DA
:1026500089819A81880F991F880F991FFC01E95879
:10266000FE4F8081823009F09BC089819A81880F5A
:10267000991F0196880F991FFC01E958FE4F808130
:102680008130E9F4A4E3B0E0E4E3F0E08081482F96
:1026900089819A81880F991F880F991FFC01E8583A
:1026A000FE4F8081282F30E081E090E0022E02C0B2
:1026B000880F991F0A94E2F7842B8C9317C1A4E327
:1026C000B0E0E4E3F0E08081482F89819A81880FAF
:1026D000991F880F991FFC01E858FE4F8081282F11
:1026E00030E081E090E0022E02C0880F991F0A942A
:1026F000E2F7809584238C9389819A81880F991FB2
:10270000880F991FFC01E658FE4F80818130E9F463
:10271000A5E3B0E0E5E3F0E08081482F89819A816C
:10272000880F991F880F991FFC01E858FE4F808180
:10273000282F30E081E090E0022E02C0880F991F20
:102740000A94E2F7842B8C93D1C089819A81880FF7
:10275000991F880F991FFC01E658FE4F808188233E
:1027600009F0C4C0ABE3B0E0EBE3F0E08081482FB8
:1027700089819A81880F991F880F991FFC01E85859
:10278000FE4F8081282F30E081E090E0022E02C0D1
:10279000880F991F0A94E2F7809584238C93A6C032
:1027A00089819A81880F991F880F991FFC01E95828
:1027B000FE4F8081833009F099C089819A81880F0A
:1027C000991F0196880F991FFC01E958FE4F8081DF
:1027D0008130E9F4A1E3B0E0E1E3F0E08081482F4B
:1027E00089819A81880F991F880F991FFC01E858E9
:1027F000FE4F8081282F30E081E090E0022E02C061
:10280000880F991F0A94E2F7842B8C936FC0A1E381
:10281000B0E0E1E3F0E08081482F89819A81880F60
:10282000991F880F991FFC01E858FE4F8081282FBF
:1028300030E081E090E0022E02C0880F991F0A94D8
:10284000E2F7809584238C9389819A81880F991F60
:10285000880F991FFC01E658FE4F80818130E9F412
:10286000A2E3B0E0E2E3F0E08081482F89819A8121
:10287000880F991F880F991FFC01E858FE4F80812F
:10288000282F30E081E090E0022E02C0880F991FCF
:102890000A94E2F7842B8C9329C089819A81880F4E
:1028A000991F880F991FFC01E658FE4F80818823ED
:1028B000E9F4ABE3B0E0EBE3F0E08081482F8981FD
:1028C0009A81880F991F880F991FFC01E858FE4FC5
:1028D0008081282F30E081E090E0022E02C0880F36
:1028E000991F0A94E2F7809584238C9389819A81B9
:1028F00001969A83898389819A81883191050CF4A4
:1029000057CD80E00F900F90CF91DF910895DF9326
:10291000CF93CDB7DEB7A6E2B0E0E6E2F0E080818B
:1029200080688C93A6E2B0E0E6E2F0E0808181600E
:102930008C93A6E2B0E0E6E2F0E0808182608C93C6
:10294000A6E2B0E0E6E2F0E0808184608C93A7E24A
:10295000B0E0E7E2F0E0808180648C93A7E2B0E031
:10296000E7E2F0E080818F778C93CF91DF9108953B
:10297000DF93CF9300D000D00F92CDB7DEB78D8319
:10298000A7E2B0E0E7E2F0E08081982F907F8D81B0
:102990008F70892B8C93A6E2B0E0E6E2F0E08081B4
:1029A00080648C93E6E2F0E0808182958F70882FBE
:1029B00090E0817090700097A9F3A6E2B0E0E6E2A3
:1029C000F0E080818F7E8C93E4E2F0E080818C8364
:1029D000E5E2F0E080818B838B81882F90E0382FB7
:1029E00022278C81882F90E0822B932B9A838983D6
:1029F00089819A810F900F900F900F900F90CF9137
:102A0000DF910895DF93CF93CDB7DEB728970FB648
:102A1000F894DEBF0FBECDBF83E064E041E00E94CA
:102A2000250E83E065E041E00E94250E81E0898368
:102A300083E08A8382E08B8382E08C83CE010196DF
:102A40000E94410A28960FB6F894DEBF0FBECDBF94
:102A5000CF91DF910895DF93CF9300D000D000D0C5
:102A6000CDB7DEB79E838D838D819E812FEF863A11
:102A700092072CF486EA9FEF9E838D8309C08D8197
:102A80009E818B35910524F08AE590E09E838D83AD
:102A90008D819E81AA2797FDA095BA2FBC01CD01FB
:102AA0000E945504DC01CB01BC01CD0120E030E0E7
:102AB00044E353E40E941903DC01CB01BC01CD01C6
:102AC00020E030E04AE754E40E941F02DC01CB0121
:102AD000BC01CD0120E030E84BEB54E40E94F20150
:102AE000DC01CB01BC01CD010E944900DC01CB011E
:102AF0009C838B838B819C819695879596958795F2
:102B00009A838983EAE4F0E089819A81019791832D
:102B10008083E6E4F0E087E893E191838083269662
:102B20000FB6F894DEBF0FBECDBFCF91DF910895F1
:102B3000DF93CF93CDB7DEB70E944A0BCF91DF91E1
:102B40000895DF93CF93CDB7DEB7E0970FB6F89433
:102B5000DEBF0FBECDBF81E062E041E00E94140FF6
:102B600080E090E0A0E2B1E48DA79EA7AFA7B8AB4C
:102B70006DA57EA58FA598A92BEA3AEA4AEA50E40A
:102B80000E941F02DC01CB0189A79AA7ABA7BCA7B3
:102B900069A57AA58BA59CA520E030E040E85FE31D
:102BA0000E94250488231CF481E088A791C069A5B0
:102BB0007AA58BA59CA520E030E04FE753E40E9466
:102BC000C50318160CF07BC06DA57EA58FA598A92E
:102BD00020E030E04AE754E40E941903DC01CB0115
:102BE0008CA39DA3AEA3BFA36CA17DA18EA19FA129
:102BF00020E030E04AE755E40E941F02DC01CB01EF
:102C000088A399A3AAA3BBA368A179A18AA19BA128
:102C100020E030E040E85FE30E94250488232CF4A4
:102C200081E090E09F8F8E8F3FC068A179A18AA13B
:102C30009BA120E03FEF4FE757E40E94C503181621
:102C40004CF56CA17DA18EA19FA120E030E040E277
:102C500051E40E941F02DC01CB01BC01CD010E94A6
:102C60004900DC01CB019F8F8E8F0FC080E991E07E
:102C70009D8F8C8F8C8D9D8D0197F1F79D8F8C8F03
:102C80008E8D9F8D01979F8F8E8F8E8D9F8D00973C
:102C900069F724C068A179A18AA19BA10E9449007B
:102CA000DC01CB019F8F8E8F8E8D9F8D9B8F8A8FA6
:102CB0008A8D9B8D0197F1F79B8F8A8F0FC069A535
:102CC0007AA58BA59CA50E944900DC01CB0188A7B1
:102CD00088A5898F898D8A95F1F7898F81E062E0D7
:102CE00040E00E94140F80E090E0AAEFB4E48D8BE6
:102CF0009E8BAF8BB88F6D897E898F89988D2BEADB
:102D00003AEA4AEA50E40E941F02DC01CB01898BB7
:102D10009A8BAB8BBC8B69897A898B899C8920E0E3
:102D200030E040E85FE30E94250488231CF481E042
:102D3000888B91C069897A898B899C8920E030E0F1
:102D40004FE753E40E94C50318160CF07BC06D8951
:102D50007E898F89988D20E030E04AE754E40E9414
:102D60001903DC01CB018C879D87AE87BF876C85FB
:102D70007D858E859F8520E030E04AE755E40E94FE
:102D80001F02DC01CB0188879987AA87BB876885EA
:102D900079858A859B8520E030E040E85FE30E94EA
:102DA000250488232CF481E090E09F838E833FC02C
:102DB000688579858A859B8520E03FEF4FE757E45A
:102DC0000E94C50318164CF56C857D858E859F8500
:102DD00020E030E040E251E40E941F02DC01CB0120
:102DE000BC01CD010E944900DC01CB019F838E8391
:102DF0000FC080E991E09D838C838C819D81019738
:102E0000F1F79D838C838E819F8101979F838E83B1
:102E10008E819F81009769F724C0688579858A85AE
:102E20009B850E944900DC01CB019F838E838E81AC
:102E30009F819B838A838A819B810197F1F79B8382
:102E40008A830FC069897A898B899C890E9449008D
:102E5000DC01CB01888B8889898389818A95F1F788
:102E6000898380E0E0960FB6F894DEBF0FBECDBF39
:102E7000CF91DF910895DF93CF93CDB7DEB782E096
:102E80000E94DB1788E20E94DB178EE00E94DB17AE
:102E900086E00E94DB1781E00E94DB1780E0CF9183
:102EA000DF910895DF93CF93CDB7DEB72E970FB69E
:102EB000F894DEBF0FBECDBF81E00E94DB1780E03B
:102EC00090E0A0E0B0E48B879C87AD87BE876B85E0
:102ED0007C858D859E8520E030E04AE755E40E94A0
:102EE0001F02DC01CB018F839887A987BA876F8186
:102EF000788589859A8520E030E040E85FE30E948C
:102F0000250488232CF481E090E09E838D833FC0CC
:102F10006F81788589859A8520E03FEF4FE757E4F8
:102F20000E94C50318164CF56B857C858D859E85A2
:102F300020E030E040E251E40E941F02DC01CB01BE
:102F4000BC01CD010E944900DC01CB019E838D8331
:102F50000FC080E991E09C838B838B819C810197DA
:102F6000F1F79C838B838D819E8101979E838D8356
:102F70008D819E81009769F714C06F81788589855E
:102F80009A850E944900DC01CB019E838D838D814F
:102F90009E819A83898389819A810197F1F79A8327
:102FA000898380E02E960FB6F894DEBF0FBECDBFAA
:102FB000CF91DF910895DF93CF930F92CDB7DEB716
:102FC000898381E061E040E00E94140F81E060E0CD
:102FD00040E00E94140F8981882334F480E066E089
:102FE00041E00E94140F05C080E066E040E00E94CE
:102FF000140F89818295869586958370882F90E03D
:1030000081709070882331F080E065E041E00E949B
:10301000140F05C080E065E040E00E94140F898134
:10302000829586958770882F90E0817090708823B4
:1030300031F080E064E041E00E94140F05C080E0C0
:1030400064E040E00E94140F898182958F70882F80
:1030500090E081709070882331F080E063E041E07F
:103060000E94140F05C080E063E040E00E94140F4E
:103070000E94A1158981869586958695882F90E076
:1030800081709070882331F080E066E041E00E941A
:10309000140F05C080E066E040E00E94140F8981B3
:1030A00086958695882F90E081709070882331F006
:1030B00080E065E041E00E94140F05C080E065E01B
:1030C00040E00E94140F89818695882F90E08170DE
:1030D0009070882331F080E064E041E00E94140F9A
:1030E00005C080E064E040E00E94140F8981882FD1
:1030F00090E081709070882331F080E063E041E0DF
:103100000E94140F05C080E063E040E00E94140FAD
:103110000E94A11580E00F90CF91DF910895DF9379
:10312000CF930F92CDB7DEB7898381E061E041E0B4
:103130000E94140F81E060E040E00E94140F89813A
:10314000882334F480E066E041E00E94140F05C05B
:1031500080E066E040E00E94140F898182958695A8
:1031600086958370882F90E081709070882331F06D
:1031700080E065E041E00E94140F05C080E065E05A
:1031800040E00E94140F8981829586958770882F70
:1031900090E081709070882331F080E064E041E03D
:1031A0000E94140F05C080E064E040E00E94140F0C
:1031B000898182958F70882F90E08170907088232C
:1031C00031F080E063E041E00E94140F05C080E030
:1031D00063E040E00E94140F0E94A115898186954A
:1031E00086958695882F90E081709070882331F0C5
:1031F00080E066E041E00E94140F05C080E066E0D8
:1032000040E00E94140F898186958695882F90E072
:1032100081709070882331F080E065E041E00E9489
:10322000140F05C080E065E040E00E94140F898122
:103230008695882F90E081709070882331F080E02F
:1032400064E041E00E94140F05C080E064E040E0CB
:103250000E94140F8981882F90E0817090708823DC
:1032600031F080E063E041E00E94140F05C080E08F
:1032700063E040E00E94140F0E94A11580E00F90CF
:10328000CF91DF910895DF93CF9300D00F92CDB708
:10329000DEB79B838A8381E061E041E00E94140FE6
:1032A00081E060E040E00E94140F19820EC0898125
:1032B000282F30E08A819B81FC01E20FF31F80817F
:1032C0000E948F1889818F5F89838981282F30E040
:1032D0008A819B81FC01E20FF31F8081882339F7EB
:1032E00080E00F900F900F90CF91DF910895DF93C2
:1032F000CF9300D000D0CDB7DEB79A8389836B839C
:103300004C8381E061E041E00E94140F81E060E0C5
:1033100040E00E94140F8B816C810E94861C898181
:103320009A810E94431980E00F900F900F900F90A8
:10333000CF91DF9108950F931F93DF93CF93CDB774
:10334000DEB760970FB6F894DEBF0FBECDBF6D87B6
:103350007E878F87988B81E061E041E00E94140FA7
:1033600081E060E040E00E94140F1A8219828D858E
:103370009E85AF85B8890097A105B10591F580E3D9
:103380000E948F184DC08A81082F10E08D859E8580
:10339000AF85B8892AE030E040E050E0BC01CD01C3
:1033A0000E946120DC01CB01282F205DCE01039615
:1033B000FC01E00FF11F20838D859E85AF85B889C4
:1033C0002AE030E040E050E0BC01CD010E946120E5
:1033D000DA01C9018D879E87AF87B88B8A818F5F9D
:1033E0008A838D859E85AF85B8890097A105B10533
:1033F00051F68A81898311C08981882F90E09C01D0
:1034000021503040CE010396FC01E20FF31F808172
:103410000E948F188981815089838981882361F76F
:1034200080E060960FB6F894DEBF0FBECDBFCF919F
:10343000DF911F910F910895DF93CF93CDB7DEB742
:10344000A5970FB6F894DEBF0FBECDBF6F8F78A3E0
:1034500089A39AA34BA32CA381E061E041E00E94E1
:10346000140F81E060E040E00E94140F8BA18130D6
:1034700009F076C080E80E94DB1780E090E0A0E8C9
:10348000BFE3898F9A8FAB8FBC8F698D7A8D8B8DBF
:103490009C8D20E030E04AE755E40E941F02DC01E9
:1034A000CB018D8B9E8BAF8BB88F6D897E898F8979
:1034B000988D20E030E040E85FE30E9425048823F7
:1034C0002CF481E090E09C8B8B8B3FC06D897E89D2
:1034D0008F89988D20E03FEF4FE757E40E94C503A6
:1034E00018164CF5698D7A8D8B8D9C8D20E030E01F
:1034F00040E251E40E941F02DC01CB01BC01CD017E
:103500000E944900DC01CB019C8B8B8B0FC080E9B2
:1035100091E09A8B898B89899A890197F1F79A8B27
:10352000898B8B899C8901979C8B8B8B8B899C8940
:10353000009769F792C06D897E898F89988D0E9466
:103540004900DC01CB019C8B8B8B8B899C89988BF0
:103550008F878F8598890197F1F7988B8F877DC02A
:103560008BA1823009F076C080EC0E94DB1780E0EE
:1035700090E0A0E2B1E48B879C87AD87BE876B8526
:103580007C858D859E8520E030E04AE755E40E94E9
:103590001F02DC01CB018F839887A987BA876F81CF
:1035A000788589859A8520E030E040E85FE30E94D5
:1035B000250488232CF481E090E09E838D833FC016
:1035C0006F81788589859A8520E03FEF4FE757E442
:1035D0000E94C50318164CF56B857C858D859E85EC
:1035E00020E030E040E251E40E941F02DC01CB0108
:1035F000BC01CD010E944900DC01CB019E838D837B
:103600000FC080E991E09C838B838B819C81019723
:10361000F1F79C838B838D819E8101979E838D839F
:103620008D819E81009769F718C06F8178858985A3
:103630009A850E944900DC01CB019E838D838D8198
:103640009E819A83898389819A810197F1F79A8370
:10365000898303C081E08DA31EC081E090E09E8F2E
:103660008D8F08C08CE10E94DB178D8D9E8D019699
:103670009E8F8D8F8CA1282F30E08D8D9E8D2817E9
:10368000390784F78F8D98A1A9A1BAA1BC01CD01FA
:103690000E949B191DA28DA1A5960FB6F894DEBFBE
:1036A0000FBECDBFCF91DF910895DF93CF93CDB7FC
:1036B000DEB7A2970FB6F894DEBF0FBECDBF8F8FD7
:1036C00068A349A381E061E041E00E94140F81E01A
:1036D00060E040E00E94140F88A1813009F076C0BC
:1036E00080E80E94DB1780E090E0A0E8BFE3898FCC
:1036F0009A8FAB8FBC8F698D7A8D8B8D9C8D20E0DE
:1037000030E04AE755E40E941F02DC01CB018D8BBB
:103710009E8BAF8BB88F6D897E898F89988D20E0C5
:1037200030E040E85FE30E94250488232CF481E028
:1037300090E09C8B8B8B3FC06D897E898F89988DA3
:1037400020E03FEF4FE757E40E94C50318164CF501
:10375000698D7A8D8B8D9C8D20E030E040E251E4C4
:103760000E941F02DC01CB01BC01CD010E94490077
:10377000DC01CB019C8B8B8B0FC080E991E09A8B95
:10378000898B89899A890197F1F79A8B898B8B8923
:103790009C8901979C8B8B8B8B899C89009769F7FF
:1037A00092C06D897E898F89988D0E944900DC01C5
:1037B000CB019C8B8B8B8B899C89988B8F878F857A
:1037C00098890197F1F7988B8F877DC088A1823007
:1037D00009F076C080EC0E94DB1780E090E0A0E268
:1037E000B1E48B879C87AD87BE876B857C858D8593
:1037F0009E8520E030E04AE755E40E941F02DC018C
:10380000CB018F839887A987BA876F81788589854F
:103810009A8520E030E040E85FE30E942504882399
:103820002CF481E090E09E838D833FC06F8178858A
:1038300089859A8520E03FEF4FE757E40E94C50352
:1038400018164CF56B857C858D859E8520E030E0D3
:1038500040E251E40E941F02DC01CB01BC01CD011A
:103860000E944900DC01CB019E838D830FC080E95B
:1038700091E09C838B838B819C810197F1F79C83E2
:103880008B838D819E8101979E838D838D819E8107
:10389000009769F718C06F81788589859A850E949D
:1038A0004900DC01CB019E838D838D819E819A83AB
:1038B000898389819A810197F1F79A83898303C06B
:1038C00081E08AA319C081E090E09E8F8D8F08C0AF
:1038D0008CE10E94DB178D8D9E8D01969E8F8D8FC2
:1038E00089A1282F30E08D8D9E8D2817390784F708
:1038F0008F8D0E948F181AA28AA1A2960FB6F894F3
:10390000DEBF0FBECDBFCF91DF910895DF93CF9380
:1039100000D000D00F92CDB7DEB789836A838A8149
:1039200081508A838981282F30E03D832C838C81CC
:103930009D818130910531F02C813D81223031050E
:1039400031F00AC08A8180580E94DB1708C08A8142
:1039500080540E94DB1703C031E03B8301C01B820F
:103960008B810F900F900F900F900F90CF91DF9160
:103970000895DF93CF9300D00F92CDB7DEB7898340
:103980006A838981882341F48A81803198F48A810D
:1039900080580E94DB170EC08981813041F48A81F2
:1039A000803140F48A8180540E94DB1703C081E09B
:1039B0008B8301C01B828B810F900F900F90CF9152
:1039C000DF910895DF93CF93CDB7DEB765970FB63C
:1039D000F894DEBF0FBECDBF9C8B8B8BEB89FC892F
:1039E0008FEF80831F868B899C89009709F4EDC037
:1039F000198AE5C08989882F90E0FC01E451FE4FC7
:103A0000908181E0692F40E00E94140F188AC1C0A4
:103A10008889882F90E0FC01E051FE4F90819E0143
:103A20002E5E3F4F83E0692FA9010E9403108A890F
:103A3000882309F0ABC080E090E0A0EAB1E48B8776
:103A40009C87AD87BE876B857C858D859E8520E0B4
:103A500030E04AE755E40E941F02DC01CB018F836E
:103A60009887A987BA876F81788589859A8520E0AC
:103A700030E040E85FE30E94250488232CF481E0D5
:103A800090E09E838D833FC06F81788589859A857C
:103A900020E03FEF4FE757E40E94C50318164CF5AE
:103AA0006B857C858D859E8520E030E040E251E489
:103AB0000E941F02DC01CB01BC01CD010E94490024
:103AC000DC01CB019E838D830FC080E991E09C8354
:103AD0008B838B819C810197F1F79C838B838D81F4
:103AE0009E8101979E838D838D819E81009769F7CA
:103AF00014C06F81788589859A850E944900DC0110
:103B0000CB019E838D838D819E819A838983898158
:103B10009A810197F1F79A8389838889882F90E0A9
:103B2000FC01E051FE4F90819E012E5E3F4F83E0ED
:103B3000692FA9010E9403100FC08889882F90E087
:103B4000FC01E051FE4F90819E012E5E3F4F83E0CD
:103B5000692FA9010E9403108A89882371F389893A
:103B6000482F50E08889282F30E0CA01880F991F1C
:103B7000880F991F820F931FFC01E452FE4F808132
:103B8000EB89FC89808381E08F8707C088898F5FFC
:103B9000888B8889843008F43BCF8989882F90E00E
:103BA000FC01E451FE4F908181E0692F41E00E94C9
:103BB000140F8F85813039F089898F5F898B8989CE
:103BC000843008F417CF1D8A02C081E08D8B8D8967
:103BD00065960FB6F894DEBF0FBECDBFCF91DF91D3
:103BE0000895DF93CF93CDB7DEB72C970FB6F89437
:103BF000DEBF0FBECDBF8E838E81882359F482E055
:103C000061E041E00E94250E82E062E041E00E9416
:103C1000250E11C08E81813059F482E063E041E0CD
:103C20000E94250E82E064E041E00E94250E03C060
:103C300081E08F832AC081E063E041E00E94250E8D
:103C4000FE013196F987E88784EF91E09B878A87A8
:103C500095E09C87EA85FB8500808A859B85019697
:103C60009B878A87E885F9850082888599850196F2
:103C7000998788879C8591509C87EC85EE2351F726
:103C8000CE0101960E9475071F828F812C960FB678
:103C9000F894DEBF0FBECDBFCF91DF910895DF93C3
:103CA000CF9300D0CDB7DEB789838981882359F4BB
:103CB00082E061E040E00E94140F82E062E040E0B8
:103CC0000E94140F11C08981813059F482E063E0B1
:103CD00040E00E94140F82E064E040E00E94140F74
:103CE00003C081E08A8301C01A828A810F900F90FD
:103CF000CF91DF910895DF93CF9300D000D000D013
:103D0000CDB7DEB789836A834B838A81282F30E061
:103D10003E832D838D819E81009731F02D813E81E0
:103D200021303105E9F038C08981882359F482E0D7
:103D300061E041E00E94140F82E062E040E00E94F6
:103D4000140F2DC08981813051F582E063E041E09C
:103D50000E94140F82E064E040E00E94140F1FC034
:103D60008981882359F482E061E040E00E94140FC9
:103D700082E062E041E00E94140F11C0898181302D
:103D800071F482E063E040E00E94140F82E064E09E
:103D900041E00E94140F03C031E03C8310C08B81CE
:103DA000882F90E0A0E0B0E0BC01CD010E940705A3
:103DB000DC01CB01BC01CD010E94C8081C828C81B2
:103DC00026960FB6F894DEBF0FBECDBFCF91DF9120
:103DD0000895DF93CF93CDB7DEB76A970FB6F89407
:103DE000DEBF0FBECDBF0E94CE110E943B1781E007
:103DF00063E041E00E94250E80E060E040E00E9428
:103E0000250E0E9487140E940215CE0141969F8BB9
:103E10008E8BE9EFF1E0F98FE88FF5E0FA8FE88D0E
:103E2000F98D0080888D998D0196998F888FEE8904
:103E3000FF8900828E899F8901969F8B8E8B9A8D38
:103E400091509A8FEA8DEE2351F7CE0141960E9450
:103E50007507188A1F8680E690E00E9443197894BF
:103E600080E00E94B814988B8F878F859889AA2745
:103E700097FDA095BA2FBC01CD010E945504DC012D
:103E8000CB01BC01CD0120E030E040E854E40E94C9
:103E90001903DC01CB01BC01CD0120E030E048EC8E
:103EA00052E40E941F02DC01CB01BC01CD010E9443
:103EB000B304DC01CB01988B8F878F859889AA2763
:103EC00097FDA095BA2FBC01CD010E945504DC01DD
:103ED000CB01BC01CD010E94C80880E06CE00E94CB
:103EE000B91C8BE690E00E94431980E06CE00E94D0
:103EF000B91C8F859889AA2797FDA095BA2FBC0178
:103F0000CD010E949B198F859889AA2797FDA095BE
:103F1000BA2FBC01CD010E945504DC01CB01BC01CC
:103F2000CD0120E030E048EC52E40E941903DC01AE
:103F3000CB01BC01CD0120E030E044E353E40E941A
:103F40001F02DC01CB01BC01CD0120E030E044EBDD
:103F500052E40E94C101DC01CB01BC01CD010E94F1
:103F6000B304DC01CB01988B8F8781E06CE00E9469
:103F7000B91C8BE690E00E94431981E06CE00E943E
:103F8000B91C8F859889AA2797FDA095BA2FBC01E7
:103F9000CD010E949B198F8598890E942B1580E086
:103FA00090E0AAE7B4E48B879C87AD87BE876B85DA
:103FB0007C858D859E8520E030E04AE755E40E94AF
:103FC0001F02DC01CB018F839887A987BA876F8195
:103FD000788589859A8520E030E040E85FE30E949B
:103FE000250488232CF481E090E09E838D833FC0DC
:103FF0006F81788589859A8520E03FEF4FE757E408
:104000000E94C50318164CF56B857C858D859E85B1
:1040100020E030E040E251E40E941F02DC01CB01CD
:10402000BC01CD010E944900DC01CB019E838D8340
:104030000FC080E991E09C838B838B819C810197E9
:10404000F1F79C838B838D819E8101979E838D8365
:104050008D819E81009769F703CF6F81788589856F
:104060009A850E944900DC01CB019E838D838D815E
:104070009E819A83898389819A810197F1F79A8336
:104080008983EECE629FD001739FF001829FE00D85
:10409000F11D649FE00DF11D929FF00D839FF00DC7
:1040A000749FF00D659FF00D9927729FB00DE11D73
:1040B000F91F639FB00DE11DF91FBD01CF01112450
:1040C0000895A1E21A2EAA1BBB1BFD010DC0AA1F59
:1040D000BB1FEE1FFF1FA217B307E407F50720F071
:1040E000A21BB30BE40BF50B661F771F881F991FEC
:1040F0001A9469F760957095809590959B01AC0135
:10410000BD01CF0108952F923F924F925F926F921F
:104110007F928F929F92AF92BF92CF92DF92EF9257
:10412000FF920F931F93CF93DF93CDB7DEB7CA1BD8
:10413000DB0B0FB6F894DEBF0FBECDBF09942A8803
:10414000398848885F846E847D848C849B84AA84AB
:10415000B984C884DF80EE80FD800C811B81AA8138
:10416000B981CE0FD11D0FB6F894DEBF0FBECDBF03
:08417000ED010895F894FFCF62
:1041780050657263656E74203A200020202000008C
:104188000000000000000000010202030303030412
:1041980004040404040404050505050505050505CE
:1041A80005050505050505060606060606060606AE
:1041B8000606060606060606060606060606060697
:1041C800060606060606060707070707070707077E
:1041D8000707070707070707070707070707070767
:1041E8000707070707070707070707070707070757
:1041F8000707070707070707070707070707070747
:10420800070707070707070808080808080808082D
:104218000808080808080808080808080808080816
:104228000808080808080808080808080808080806
:1042380008080808080808080808080808080808F6
:1042480008080808080808080808080808080808E6
:1042580008080808080808080808080808080808D6
:1042680008080808080808080808080808080808C6
:1042780008080808080808080808080808080808B6
:1042880008080808080808000101000002010000E9
:104298000301000004010000050100000601000000
:1042A80007010002000100010001000101010001F5
:1042B80002010001040100010501000106010001DD
:1042C80007010003020001030300010304000103C6
:1042D80005010000000000000000000000000000D0
:1042E8000000000000000000050001003738392FE9
:1042F8003435362A3132332D43303D2B0405060739
:0E43080002030405010202000001030200008E
:00000001FF
