:100000000C942A000C94FE070C9431080C9464089C
:100010000C9447000C9447000C9447000C94470044
:100020000C9447000C9447000C9447000C94470034
:100030000C9447000C9447000C9447000C94470024
:100040000C9447000C9447000C9447000C94470014
:100050000C94470011241FBECFE5D8E0DEBFCDBF12
:1000600011E0A0E6B0E0E4EEF2E402C005900D92EB
:10007000AA39B107D9F711E0AAE9B1E001C01D9290
:10008000A53BB107E1F70E94731A0C9470210C9400
:100090000000EF92FF920F931F937B018C0120E0F1
:1000A00030E040E05FE40E94F50388238CF0C80153
:1000B000B70120E030E040E05FE40E94C1010E940F
:1000C00055049B01AC01205030404040504806C0D0
:1000D000C801B7010E9455049B01AC01B901CA01D6
:1000E0001F910F91FF90EF900895A0E0B0E0EBE733
:1000F000F0E00C942921DC012B01FA019C91923053
:1001000008F439C1EB018881823008F433C194309E
:1001100069F4843009F02FC111969C91119789815F
:10012000981709F428C1A0E1B1E025C1843009F491
:1001300021C18230A9F4923009F01DC19A01AD01AC
:1001400088E0EA010990AE01E90109929E0181501F
:10015000C1F7E201898111969C918923818308C1AD
:10016000923009F407C112962D903C901397EB0141
:100170008A819B811496AD90BD90CD90DC901797AD
:10018000EC80FD800E811F819101281B390BB90184
:1001900037FF04C066277727621B730B6032710537
:1001A0000CF061C0121613066CF537014801062EDB
:1001B00004C096948794779467940A94D2F721E0C8
:1001C00030E040E050E004C0220F331F441F551FB1
:1001D0006A95D2F721503040404050402E213F21B7
:1001E00040235123211531054105510521F021E01E
:1001F00030E040E050E079018A01E628F72808293C
:1002000019293CC0232BD1F1260E371E350146019A
:10021000062E04C096948794779467940A94D2F734
:1002200021E030E040E050E004C0220F331F441FC3
:10023000551F6A95D2F721503040404050402A2146
:100240003B214C215D21211531054105510521F04E
:1002500021E030E040E050E059016A01A628B728CB
:10026000C828D9280BC0821593052CF01C01AA249C
:10027000BB24650103C0EE24FF24870111969C91E5
:10028000D20111968C91981709F445C0992339F041
:10029000A80197012A193B094C095D0906C0A6016E
:1002A00095012E193F09400B510B57FD08C01182D3
:1002B0003382228224833583468357831DC081E0A5
:1002C00081833382228288279927DC01821B930B4A
:1002D000A40BB50B84839583A683B7830DC0220F2F
:1002E000331F441F551F24833583468357838281E0
:1002F000938101979383828324813581468157813D
:10030000DA01C9010197A109B1098F5F9F4FAF4F72
:10031000BF4328F30BC0918333822282EA0CFB1C7B
:100320000C1D1D1DE482F5820683178383E0808304
:10033000248135814681578157FF1AC0C901AA27F8
:1003400097FDA095BA2F81709070A070B0705695EF
:10035000479537952795822B932BA42BB52B848318
:100360009583A683B7838281938101969383828349
:10037000DF0101C0D201CD01CDB7DEB7E2E10C94BF
:100380004521A0E2B0E0E7ECF1E00C94352169836F
:100390007A838B839C832D833E834F835887E9E048
:1003A000EE2EF12CEC0EFD1ECE010196B7010E943F
:1003B0007E058E010F5E1F4FCE010596B8010E948B
:1003C0007E058A8991E089278A8BC701B801AE0131
:1003D000475E5F4F0E9475000E94A904A096E6E068
:1003E0000C945121A0E2B0E0E8EFF1E00C9435214B
:1003F00069837A838B839C832D833E834F835887C5
:10040000F9E0EF2EF12CEC0EFD1ECE010196B701A6
:100410000E947E058E010F5E1F4FCE010596B8012A
:100420000E947E05C701B801AE01475E5F4F0E9482
:1004300075000E94A904A096E6E00C945121A0E268
:10044000B0E0E5E2F2E00C94292169837A838B83A2
:100450009C832D833E834F835887CE010196BE0136
:10046000675F7F4F0E947E05CE010596BE016F5EDD
:100470007F4F0E947E059985923088F0898982306D
:10048000C8F0943019F4823051F404C0843029F457
:10049000923081F480E191E0C6C0923049F420E0CE
:1004A0009A858A89981321E02A87CE010996BBC0D4
:1004B000823049F420E09A858A89981321E02A8BBA
:1004C000CE014196B0C02D843E844F8458886D88FB
:1004D0007E888F88988CEE24FF248701AA24BB2471
:1004E000650140E050E060E070E0E0E0F0E0C10174
:1004F00081709070892BE9F0E60CF71C081D191D1E
:100500009A01AB012A0D3B1D4C1D5D1D80E090E062
:10051000A0E0B0E0E614F7040805190520F481E036
:1005200090E0A0E0B0E0BA01A901480F591F6A1F8E
:100530007B1FAA0CBB1CCC1CDD1C97FE08C081E0F5
:1005400090E0A0E0B0E0A82AB92ACA2ADB2A3196B6
:10055000E032F10549F0660C771C881C991C569412
:10056000479437942794C3CFFA85EA892B893C892D
:100570008B859C85280F391F2E5F3F4F17C0CA01FE
:1005800081709070892B61F016950795F794E79428
:1005900080E090E0A0E0B0E8E82AF92A0A2B1B2BC3
:1005A00076956795579547952F5F3F4F77FDE7CF36
:1005B0000CC0440F551F661F771F17FD4160EE0CDE
:1005C000FF1C001F111F21503040403090E05907A0
:1005D00090E0690790E4790760F32B8F3C8FDB0193
:1005E000CA018F779070A070B07080349105A1051A
:1005F000B10561F447FD0AC0E114F10401051105DC
:1006000029F0405C5F4F6F4F7F4F40781A8EFE1786
:1006100011F081E08A8F4D8F5E8F6F8F78A383E01A
:10062000898FCE0149960E94A904A096E2E10C941C
:100630004521A8E1B0E0EFE1F3E00C9431216983BA
:100640007A838B839C832D833E834F835887B9E0C5
:10065000EB2EF12CEC0EFD1ECE010196B7010E948F
:100660007E058E010F5E1F4FCE010596B8010E94D8
:100670007E052985223008F47EC03989323010F495
:10068000B8017CC08A859A8989278A87243011F02D
:10069000223031F4231709F06EC060E171E06EC0C2
:1006A000343039F41D861E861F86188A1C861B86E8
:1006B00004C0323021F484E08987B7015FC02B8504
:1006C0003C858B899C89281B390B3C872B87ED84C3
:1006D000FE840F851889AD88BE88CF88D88CEA142F
:1006E000FB040C051D0540F4EE0CFF1C001F111F40
:1006F000215030403C872B8720E030E040E050E044
:1007000080E090E0A0E0B0E460E070E0EA14FB0478
:100710000C051D0540F0282B392B4A2B5B2BEA18C2
:10072000FB080C091D09B695A79597958795EE0CC2
:10073000FF1C001F111F6F5F7F4F6F31710531F775
:10074000DA01C9018F779070A070B0708034910584
:10075000A105B10561F427FD0AC0E114F10401050A
:10076000110529F0205C3F4F4F4F5F4F20782D87B8
:100770003E874F87588BBE01675F7F4FCB010E943A
:10078000A9046896EAE00C944D21A8E1B0E0EBECF6
:10079000F3E00C94352169837A838B839C832D83CA
:1007A0003E834F83588789E0E82EF12CEC0EFD1E26
:1007B000CE010196B7010E947E058E010F5E1F4F8C
:1007C000CE010596B8010E947E058985823040F0F1
:1007D0008989823028F0C701B8010E94F60501C05E
:1007E0008FEF6896E6E00C945121A8E1B0E0EBEFC2
:1007F000F3E00C94352169837A838B839C832D836A
:100800003E834F83588789E0E82EF12CEC0EFD1EC5
:10081000CE010196B7010E947E058E010F5E1F4F2B
:10082000CE010596B8010E947E058985823040F090
:100830008989823028F0C701B8010E94F60501C0FD
:100840008FEF6896E6E00C945121A8E1B0E0EBE26E
:10085000F4E00C94352169837A838B839C832D8308
:100860003E834F83588789E0E82EF12CEC0EFD1E65
:10087000CE010196B7010E947E058E010F5E1F4FCB
:10088000CE010596B8010E947E058985823040F030
:100890008989823028F0C701B8010E94F60501C09D
:1008A00081E06896E6E00C945121ACE0B0E0EBE525
:1008B000F4E00C94392169837A838B839C83CE0185
:1008C0000196BE016B5F7F4F0E947E058D81823055
:1008D00061F1823050F1843021F48E81882351F10E
:1008E0002EC02F81388537FD20C06E812F31310514
:1008F0001CF06623F9F023C08EE190E0821B930B7D
:1009000029853A854B855C8504C056954795379572
:1009100027958A95D2F76623B1F05095409530958A
:1009200021953F4F4F4F5F4F0EC020E030E040E039
:1009300050E009C02FEF3FEF4FEF5FE704C020E02A
:1009400030E040E050E8B901CA012C96E2E00C9496
:100950005521DF92EF92FF920F931F93FC01E480E9
:10096000F58006811781D1808081823048F480E053
:1009700090E0A0E1B0E0E82AF92A0A2B1B2BA5C0E1
:10098000843009F49FC0823021F4EE24FF248701D3
:1009900005C0E114F1040105110519F4E0E0F0E0EF
:1009A00096C0628173819FEF623879070CF05BC05B
:1009B00022E83FEF261B370B2A3131052CF020E0CF
:1009C00030E040E050E02AC0B801A701022E04C088
:1009D00076956795579547950A94D2F781E090E010
:1009E000A0E0B0E004C0880F991FAA1FBB1F2A9582
:1009F000D2F70197A109B1098E219F21A023B1232C
:100A00000097A105B10521F081E090E0A0E0B0E001
:100A10009A01AB01282B392B4A2B5B2BDA01C90138
:100A20008F779070A070B07080349105A105B105EA
:100A300039F427FF09C0205C3F4F4F4F5F4F04C080
:100A4000215C3F4F4F4F5F4FE0E0F0E02030A0E0EF
:100A50003A07A0E04A07A0E45A0710F0E1E0F0E00E
:100A600079018A0127C06038710564F5FB01E158FE
:100A7000FF4FD801C7018F779070A070B07080349D
:100A80009105A105B10539F4E7FE0DC080E490E0C1
:100A9000A0E0B0E004C08FE390E0A0E0B0E0E80E9A
:100AA000F91E0A1F1B1F17FF05C016950795F7941F
:100AB000E794319687E016950795F794E7948A9521
:100AC000D1F705C0EE24FF248701EFEFF0E06E2F91
:100AD000679566276795902F9F77D794DD24D794E5
:100AE0008E2F8695492F462B582F5D29B701CA01B5
:100AF0001F910F91FF90EF90DF900895FC01DB01B3
:100B0000408151812281622F6F7770E0221F22275E
:100B1000221F9381892F880F822B282F30E0991F65
:100B20009927991F11969C93119721153105A9F5C5
:100B3000411551056105710511F482E037C082E865
:100B40009FEF13969C938E9312979A01AB0167E0E7
:100B5000220F331F441F551F6A95D1F783E08C93F2
:100B60000DC0220F331F441F551F12968D919C916B
:100B70001397019713969C938E931297203080E0E1
:100B8000380780E0480780E4580758F314962D93FF
:100B90003D934D935C93179708952F3F310579F45A
:100BA000411551056105710519F484E08C93089590
:100BB00064FF03C081E08C9312C01C9210C02F57B9
:100BC000304013963C932E93129783E08C9387E0EA
:100BD000440F551F661F771F8A95D1F770641496CE
:100BE0004D935D936D937C93179708951F93DC014C
:100BF000FB019C91923008F447C08081823008F458
:100C000043C0943051F411961C91843099F5818140
:100C1000682F70E0611B71093FC0843021F0923071
:100C200031F48230B9F18181882389F12DC0119688
:100C30001C9111978230F1F081811817D9F4129626
:100C40002D913C911397828193818217930794F0A1
:100C500028173907BCF014968D919D910D90BC9189
:100C6000A02D2481358146815781281739074A07ED
:100C70005B0718F4112341F00AC082179307A407F9
:100C8000B50740F4112319F061E070E005C06FEF83
:100C90007FEF02C060E070E0CB011F910895DF9309
:100CA000CF9300D000D00F92CDB7DEB789837B837E
:100CB0006A838981282F30E03D832C838C819D813C
:100CC0008130910581F02C813D812230310591F0F8
:100CD0008C819D810097A1F48A819B8190939B01D7
:100CE00080939A010DC08A819B8190939D0180938E
:100CF0009C0106C08A819B8190939F0180939E01F5
:100D00000F900F900F900F900F90CF91DF9108955B
:100D1000DF93CF9300D00F92CDB7DEB7898389815F
:100D2000282F30E03B832A838A819B818130910583
:100D300089F02A813B8122303105A1F08A819B8193
:100D40000097B9F4ABE5B0E0EBE5F0E080818064BA
:100D50008C930FC0ABE5B0E0EBE5F0E080818068FC
:100D60008C9307C0ABE5B0E0EBE5F0E080818062FA
:100D70008C930F900F900F90CF91DF910895DF9398
:100D8000CF9300D00F92CDB7DEB789838981282F0A
:100D900030E03B832A838A819B818130910589F0F1
:100DA0002A813B8122303105A1F08A819B81009705
:100DB000B9F4ABE5B0E0EBE5F0E080818F7B8C939C
:100DC0000FC0ABE5B0E0EBE5F0E080818F778C936E
:100DD00007C0ABE5B0E0EBE5F0E080818F7D8C9360
:100DE0000F900F900F90CF91DF910895DF93CF93E5
:100DF000CDB7DEB72A970FB6F894DEBF0FBECDBFD2
:100E000089836A838981282F30E03A8729878985F9
:100E10009A858130910509F466C029853A8522308A
:100E2000310509F4BBC089859A85009709F0DDC0BA
:100E30008A81282F30E038872F838F8198858130F1
:100E4000910521F12F813885223031052CF48F81D5
:100E50009885009761F0C9C02F813885223031050F
:100E600021F18F8198858330910571F1BEC0A5E590
:100E7000B0E0E5E5F0E080818E7F8C93A5E5B0E001
:100E8000E5E5F0E080818D7F8C93AFC0A5E5B0E013
:100E9000E5E5F0E0808181608C93A5E5B0E0E5E5D3
:100EA000F0E080818D7F8C93A0C0A5E5B0E0E5E502
:100EB000F0E080818E7F8C93A5E5B0E0E5E5F0E081
:100EC000808182608C9391C0A5E5B0E0E5E5F0E01B
:100ED000808181608C93A5E5B0E0E5E5F0E080815C
:100EE00082608C9382C08A81282F30E03E832D83DC
:100EF0008D819E818130910521F12D813E812230AD
:100F000031052CF48D819E81009761F06EC02D819A
:100F10003E812230310521F18D819E818330910502
:100F200071F163C0A5E5B0E0E5E5F0E080818B7F7D
:100F30008C93A5E5B0E0E5E5F0E08081877F8C93B8
:100F400054C0A5E5B0E0E5E5F0E0808184608C93D5
:100F5000A5E5B0E0E5E5F0E08081877F8C9345C0B2
:100F6000A5E5B0E0E5E5F0E080818B7F8C93A5E519
:100F7000B0E0E5E5F0E0808188608C9336C0A5E5BF
:100F8000B0E0E5E5F0E0808184608C93A5E5B0E019
:100F9000E5E5F0E0808188608C9327C08A81282F66
:100FA00030E03C832B838B819C818230910531F032
:100FB0002B813C812330310549F010C0A4E5B0E01D
:100FC000E4E5F0E080818F7B8C930FC0A4E5B0E076
:100FD000E4E5F0E0808180648C9307C0A4E5B0E094
:100FE000E4E5F0E080818F7B8C932A960FB6F8942D
:100FF000DEBF0FBECDBFCF91DF9108951F920F923C
:101000000FB60F9211242F933F934F935F936F93DB
:101010007F938F939F93AF93BF93EF93FF93DF9350
:10102000CF93CDB7DEB780919A0190919B01009745
:1010300029F0E0919A01F0919B010995CF91DF9100
:10104000FF91EF91BF91AF919F918F917F916F91A0
:101050005F914F913F912F910F900FBE0F901F9076
:1010600018951F920F920FB60F9211242F933F9352
:101070004F935F936F937F938F939F93AF93BF93A0
:10108000EF93FF93DF93CF93CDB7DEB780919C01B1
:1010900090919D01009729F0E0919C01F0919D01B4
:1010A0000995CF91DF91FF91EF91BF91AF919F9102
:1010B0008F917F916F915F914F913F912F910F9001
:1010C0000FBE0F901F9018951F920F920FB60F92A0
:1010D00011242F933F934F935F936F937F938F933D
:1010E0009F93AF93BF93EF93FF93DF93CF93CDB7CE
:1010F000DEB780919E0190919F01009729F0E091C9
:101100009E01F0919F010995CF91DF91FF91EF91A1
:10111000BF91AF919F918F917F916F915F914F910F
:101120003F912F910F900FBE0F901F901895DF9356
:10113000CF9300D000D0CDB7DEB789836A834B83CD
:101140008A81883018F081E08C83D8C08981882317
:1011500091F58B818130A1F4AAE3B0E0EAE3F0E0FD
:101160008081482F8A81282F30E081E090E0022E94
:1011700002C0880F991F0A94E2F7842B8C93BDC09C
:101180008B818823A9F4AAE3B0E0EAE3F0E0808150
:10119000482F8A81282F30E081E090E0022E02C0A3
:1011A000880F991F0A94E2F7809584238C93A5C039
:1011B00081E08C83A3C08981813091F58B8181305E
:1011C000A1F4A7E3B0E0E7E3F0E08081482F8A8153
:1011D000282F30E081E090E0022E02C0880F991F96
:1011E0000A94E2F7842B8C9388C08B818823A9F41E
:1011F000A7E3B0E0E7E3F0E08081482F8A81282F61
:1012000030E081E090E0022E02C0880F991F0A941E
:10121000E2F7809584238C9370C081E08C836EC04C
:101220008981823091F58B818130A1F4A4E3B0E013
:10123000E4E3F0E08081482F8A81282F30E081E0CC
:1012400090E0022E02C0880F991F0A94E2F7842BC7
:101250008C9353C08B818823A9F4A4E3B0E0E4E32A
:10126000F0E08081482F8A81282F30E081E090E0F3
:10127000022E02C0880F991F0A94E2F780958423FA
:101280008C933BC081E08C8339C08981833091F598
:101290008B818130A1F4A1E3B0E0E1E3F0E0808153
:1012A000482F8A81282F30E081E090E0022E02C092
:1012B000880F991F0A94E2F7842B8C931EC08B81B0
:1012C0008823A9F4A1E3B0E0E1E3F0E08081482FB6
:1012D0008A81282F30E081E090E0022E02C0880F42
:1012E000991F0A94E2F7809584238C9306C081E0CD
:1012F0008C8304C081E08C8301C01C828C810F90A0
:101300000F900F900F90CF91DF910895DF93CF93BF
:1013100000D000D0CDB7DEB789836A834B838A8142
:10132000883018F081E08C83D8C08981882391F5BA
:101330008B818130A1F4ABE3B0E0EBE3F0E080819E
:10134000482F8A81282F30E081E090E0022E02C0F1
:10135000880F991F0A94E2F7842B8C93BDC08B8170
:101360008823A9F4ABE3B0E0EBE3F0E08081482F01
:101370008A81282F30E081E090E0022E02C0880FA1
:10138000991F0A94E2F7809584238C93A5C081E08D
:101390008C83A3C08981813091F58B818130A1F448
:1013A000A8E3B0E0E8E3F0E08081482F8A81282FAD
:1013B00030E081E090E0022E02C0880F991F0A946D
:1013C000E2F7842B8C9388C08B818823A9F4A8E34F
:1013D000B0E0E8E3F0E08081482F8A81282F30E0F8
:1013E00081E090E0022E02C0880F991F0A94E2F774
:1013F000809584238C9370C081E08C836EC089813A
:10140000823091F58B818130A1F4A5E3B0E0E5E372
:10141000F0E08081482F8A81282F30E081E090E041
:10142000022E02C0880F991F0A94E2F7842B8C9336
:1014300053C08B818823A9F4A5E3B0E0E5E3F0E095
:101440008081482F8A81282F30E081E090E0022EB1
:1014500002C0880F991F0A94E2F7809584238C9329
:101460003BC081E08C8339C08981833091F58B81C9
:101470008130A1F4A2E3B0E0E2E3F0E08081482F04
:101480008A81282F30E081E090E0022E02C0880F90
:10149000991F0A94E2F7842B8C931EC08B818823BA
:1014A000A9F4A2E3B0E0E2E3F0E08081482F8A8172
:1014B000282F30E081E090E0022E02C0880F991FB3
:1014C0000A94E2F7809584238C9306C081E08C8394
:1014D00004C081E08C8301C01C828C810F900F902E
:1014E0000F900F90CF91DF910895DF93CF9300D0AD
:1014F00000D00F92CDB7DEB789836A835C834B83BC
:101500008A81883018F041E04D8360C0898188234A
:10151000A1F4E9E3F0E08081282F30E08A81882F70
:1015200090E0A90102C0559547958A95E2F7CA0156
:101530008170EB81FC81808348C089818130A1F476
:10154000E6E3F0E08081282F30E08A81882F90E068
:10155000A90102C0559547958A95E2F7CA018170A5
:10156000EB81FC81808331C089818230A1F4E3E387
:10157000F0E08081282F30E08A81882F90E0A90157
:1015800002C0559547958A95E2F7CA018170EB81B3
:10159000FC8180831AC089818330A1F4E0E3F0E00C
:1015A0008081282F30E08A81882F90E0A90102C035
:1015B000559547958A95E2F7CA018170EB81FC81C8
:1015C000808303C051E05D8301C01D828D810F9037
:1015D0000F900F900F900F90CF91DF910895DF93B0
:1015E000CF9300D000D00F92CDB7DEB789836A8346
:1015F0008A81813031F08A81813019F021E02D8398
:1016000053C08981282F30E03C832B838B819C81C0
:101610008130910509F12B813C81223031052CF478
:101620008B819C81009761F03BC02B813C812230F3
:101630003105F1F08B819C818330910529F130C017
:101640008A81813029F4EAE3F0E08FEF80832BC0B8
:10165000EAE3F0E0108227C08A81813029F4E7E3D1
:10166000F0E08FEF80831FC0E7E3F0E010821BC043
:101670008A81813029F4E4E3F0E08FEF808313C0A6
:10168000E4E3F0E010820FC08A81813029F4E1E3C5
:10169000F0E08FEF808307C0E1E3F0E0108203C049
:1016A00091E09D8301C01D828D810F900F900F905E
:1016B0000F900F90CF91DF910895DF93CF9300D0DB
:1016C00000D00F92CDB7DEB789836A838A818130DB
:1016D00031F08A81882319F021E02D8353C089815C
:1016E000282F30E03C832B838B819C8181309105B6
:1016F00009F12B813C81223031052CF48B819C81B6
:10170000009761F03BC02B813C8122303105F1F024
:101710008B819C818330910529F130C08A81813091
:1017200029F4EBE3F0E08FEF80832BC0EBE3F0E0F4
:10173000108227C08A81813029F4E8E3F0E08FEF3E
:1017400080831FC0E8E3F0E010821BC08A818130F3
:1017500029F4E5E3F0E08FEF808313C0E5E3F0E0E8
:1017600010820FC08A81813029F4E2E3F0E08FEF2C
:10177000808307C0E2E3F0E0108203C091E09D8324
:1017800001C01D828D810F900F900F900F900F90D0
:10179000CF91DF910895DF93CF9300D00F92CDB713
:1017A000DEB789836A838A81883018F081E08B8371
:1017B00060C089818823A1F4ABE3B0E0EBE3F0E003
:1017C0008081482F8A81282F30E081E090E0022E2E
:1017D00002C0880F991F0A94E2F784278C9348C0AF
:1017E00089818130A1F4A8E3B0E0E8E3F0E08081F2
:1017F000482F8A81282F30E081E090E0022E02C03D
:10180000880F991F0A94E2F784278C9331C089814D
:101810008230A1F4A5E3B0E0E5E3F0E08081482F59
:101820008A81282F30E081E090E0022E02C0880FEC
:10183000991F0A94E2F784278C931AC08981833018
:10184000A1F4A2E3B0E0E2E3F0E08081482F8A81D6
:10185000282F30E081E090E0022E02C0880F991F0F
:101860000A94E2F784278C9303C081E08B8301C044
:101870001B828B810F900F900F90CF91DF91089575
:10188000DF93CF9300D0CDB7DEB71A8219821A82C8
:101890001982A3C289819A81880F991F880F991F85
:1018A000FC01E85EFE4F8081882309F09BC089819E
:1018B0009A81880F991F0196880F991FFC01E85E95
:1018C000FE4F80818130E9F4AAE3B0E0EAE3F0E082
:1018D0008081482F89819A81880F991F880F991FCD
:1018E000FC01E75EFE4F8081282F30E081E090E030
:1018F000022E02C0880F991F0A94E2F7842B8C9362
:1019000067C2AAE3B0E0EAE3F0E08081482F898172
:101910009A81880F991F880F991FFC01E75EFE4F7F
:101920008081282F30E081E090E0022E02C0880FF5
:10193000991F0A94E2F7809584238C9389819A8178
:10194000880F991F880F991FFC01E55EFE4F80816B
:101950008130E9F4ABE3B0E0EBE3F0E08081482FC5
:1019600089819A81880F991F880F991FFC01E75E72
:10197000FE4F8081282F30E081E090E0022E02C0EF
:10198000880F991F0A94E2F7842B8C9321C28981D6
:101990009A81880F991F880F991FFC01E55EFE4F01
:1019A0008081882309F014C2ABE3B0E0EBE3F0E000
:1019B0008081482F89819A81880F991F880F991FEC
:1019C000FC01E75EFE4F8081282F30E081E090E04F
:1019D000022E02C0880F991F0A94E2F78095842393
:1019E0008C93F6C189819A81880F991F880F991F5E
:1019F000FC01E85EFE4F8081813009F09BC0898147
:101A00009A81880F991F0196880F991FFC01E85E43
:101A1000FE4F80818130E9F4A7E3B0E0E7E3F0E036
:101A20008081482F89819A81880F991F880F991F7B
:101A3000FC01E75EFE4F8081282F30E081E090E0DE
:101A4000022E02C0880F991F0A94E2F7842B8C9310
:101A5000BFC1A7E3B0E0E7E3F0E08081482F8981D0
:101A60009A81880F991F880F991FFC01E75EFE4F2E
:101A70008081282F30E081E090E0022E02C0880FA4
:101A8000991F0A94E2F7809584238C9389819A8127
:101A9000880F991F880F991FFC01E55EFE4F80811A
:101AA0008130E9F4A8E3B0E0E8E3F0E08081482F7A
:101AB00089819A81880F991F880F991FFC01E75E21
:101AC000FE4F8081282F30E081E090E0022E02C09E
:101AD000880F991F0A94E2F7842B8C9379C189812E
:101AE0009A81880F991F880F991FFC01E55EFE4FB0
:101AF0008081882309F06CC1ABE3B0E0EBE3F0E058
:101B00008081482F89819A81880F991F880F991F9A
:101B1000FC01E75EFE4F8081282F30E081E090E0FD
:101B2000022E02C0880F991F0A94E2F78095842341
:101B30008C934EC189819A81880F991F880F991FB4
:101B4000FC01E85EFE4F8081823009F09BC08981F4
:101B50009A81880F991F0196880F991FFC01E85EF2
:101B6000FE4F80818130E9F4A4E3B0E0E4E3F0E0EB
:101B70008081482F89819A81880F991F880F991F2A
:101B8000FC01E75EFE4F8081282F30E081E090E08D
:101B9000022E02C0880F991F0A94E2F7842B8C93BF
:101BA00017C1A4E3B0E0E4E3F0E08081482F89812D
:101BB0009A81880F991F880F991FFC01E75EFE4FDD
:101BC0008081282F30E081E090E0022E02C0880F53
:101BD000991F0A94E2F7809584238C9389819A81D6
:101BE000880F991F880F991FFC01E55EFE4F8081C9
:101BF0008130E9F4A5E3B0E0E5E3F0E08081482F2F
:101C000089819A81880F991F880F991FFC01E75ECF
:101C1000FE4F8081282F30E081E090E0022E02C04C
:101C2000880F991F0A94E2F7842B8C93D1C0898185
:101C30009A81880F991F880F991FFC01E55EFE4F5E
:101C40008081882309F0C4C0ABE3B0E0EBE3F0E0AF
:101C50008081482F89819A81880F991F880F991F49
:101C6000FC01E75EFE4F8081282F30E081E090E0AC
:101C7000022E02C0880F991F0A94E2F780958423F0
:101C80008C93A6C089819A81880F991F880F991F0C
:101C9000FC01E85EFE4F8081833009F099C08981A4
:101CA0009A81880F991F0196880F991FFC01E85EA1
:101CB000FE4F80818130E9F4A1E3B0E0E1E3F0E0A0
:101CC0008081482F89819A81880F991F880F991FD9
:101CD000FC01E75EFE4F8081282F30E081E090E03C
:101CE000022E02C0880F991F0A94E2F7842B8C936E
:101CF0006FC0A1E3B0E0E1E3F0E08081482F89818B
:101D00009A81880F991F880F991FFC01E75EFE4F8B
:101D10008081282F30E081E090E0022E02C0880F01
:101D2000991F0A94E2F7809584238C9389819A8184
:101D3000880F991F880F991FFC01E55EFE4F808177
:101D40008130E9F4A2E3B0E0E2E3F0E08081482FE3
:101D500089819A81880F991F880F991FFC01E75E7E
:101D6000FE4F8081282F30E081E090E0022E02C0FB
:101D7000880F991F0A94E2F7842B8C9329C08981DC
:101D80009A81880F991F880F991FFC01E55EFE4F0D
:101D900080818823E9F4ABE3B0E0EBE3F0E08081FD
:101DA000482F89819A81880F991F880F991FFC01FC
:101DB000E75EFE4F8081282F30E081E090E0022E28
:101DC00002C0880F991F0A94E2F7809584238C93B0
:101DD00089819A8101969A83898389819A8189313F
:101DE00091050CF457CD80E00F900F90CF91DF91CB
:101DF0000895DF93CF93CDB7DEB782E060E041E096
:101E00000E94970882E065E041E00E94970882E026
:101E100066E041E00E94970882E067E041E00E94AE
:101E2000970882E060E040E00E94860982E065E079
:101E300040E00E94860982E066E040E00E94860958
:101E400082E067E040E00E948609CF91DF9108952B
:101E5000DF93CF93CDB7DEB7EF970FB6F894DEBF21
:101E60000FBECDBF8FAF8FAD882F90E0A0E0B0E068
:101E7000072E7BE0880F991FAA1FBB1F7A95D1F709
:101E8000702D28E631E040E050E0BC01CD010E9419
:101E90000721DA01C9019EAF8DAF8DAD9EAD96953C
:101EA0008795969587959CAF8BAF1AAE19AE1AAEF3
:101EB00019AE1DC282E060E041E00E94860982E026
:101EC00065E040E00E94860982E066E040E00E9412
:101ED000860982E067E040E00E94860980E090E0A9
:101EE000A0EAB1E48DAB9EABAFABB8AF6DA97EA954
:101EF0008FA998AD20E030E04AE755E40E941F0228
:101F0000DC01CB0189AB9AABABABBCAB69A97AA9BD
:101F10008BA99CA920E030E040E85FE30E94250403
:101F200088232CF481E090E098AB8FA73FC069A98B
:101F30007AA98BA99CA920E03FEF4FE757E40E94C4
:101F4000C50318164CF56DA97EA98FA998AD20E0A0
:101F500030E040E251E40E941F02DC01CB01BC01F1
:101F6000CD010E944900DC01CB0198AB8FA70FC0C7
:101F700080E991E09EA78DA78DA59EA50197F1F719
:101F80009EA78DA78FA598A9019798AB8FA78FA51E
:101F900098A9009769F714C069A97AA98BA99CA987
:101FA0000E944900DC01CB0198AB8FA78FA598A9AF
:101FB0009CA78BA78BA59CA50197F1F79CA78BA746
:101FC00082E060E040E00E94860982E065E041E056
:101FD0000E94860982E066E040E00E94860982E075
:101FE00067E040E00E94860980E090E0A0EAB1E46A
:101FF0008FA398A7A9A7BAA76FA178A589A59AA525
:1020000020E030E04AE755E40E941F02DC01CB01EA
:102010008BA39CA3ADA3BEA36BA17CA18DA19EA10C
:1020200020E030E040E85FE30E94250488232CF4A0
:1020300081E090E09AA389A33FC06BA17CA18DA110
:102040009EA120E03FEF4FE757E40E94C50318161A
:102050004CF56FA178A589A59AA520E030E040E273
:1020600051E40E941F02DC01CB01BC01CD010E94A2
:102070004900DC01CB019AA389A30FC080E991E05C
:1020800098A38F8F8F8D98A10197F1F798A38F8FC9
:1020900089A19AA101979AA389A389A19AA10097DE
:1020A00069F714C06BA17CA18DA19EA10E9449007B
:1020B000DC01CB019AA389A389A19AA19E8F8D8F60
:1020C0008D8D9E8D0197F1F79E8F8D8F82E060E060
:1020D00040E00E94860982E065E040E00E948609B7
:1020E00082E066E041E00E94860982E067E040E02D
:1020F0000E94860980E090E0A0EAB1E4898F9A8F7F
:10210000AB8FBC8F698D7A8D8B8D9C8D20E030E0FC
:102110004AE755E40E941F02DC01CB018D8B9E8BA8
:10212000AF8BB88F6D897E898F89988D20E030E0E4
:1021300040E85FE30E94250488232CF481E090E0CE
:102140009C8B8B8B3FC06D897E898F89988D20E019
:102150003FEF4FE757E40E94C50318164CF5698D11
:102160007A8D8B8D9C8D20E030E040E251E40E941E
:102170001F02DC01CB01BC01CD010E944900DC0142
:10218000CB019C8B8B8B0FC080E991E09A8B898B64
:1021900089899A890197F1F79A8B898B8B899C8918
:1021A00001979C8B8B8B8B899C89009769F714C056
:1021B0006D897E898F89988D0E944900DC01CB0151
:1021C0009C8B8B8B8B899C89988B8F878F8598892B
:1021D0000197F1F7988B8F8782E060E040E00E94E2
:1021E000860982E065E040E00E94860982E066E0C0
:1021F00040E00E94860982E067E041E00E94860993
:1022000080E090E0A0EAB1E48B879C87AD87BE8731
:102210006B857C858D859E8520E030E04AE755E41E
:102220000E941F02DC01CB018F839887A987BA87A0
:102230006F81788589859A8520E030E040E85FE30A
:102240000E94250488232CF481E090E09E838D83F6
:102250003FC06F81788589859A8520E03FEF4FE701
:1022600057E40E94C50318164CF56B857C858D8557
:102270009E8520E030E040E251E40E941F02DC0134
:10228000CB01BC01CD010E944900DC01CB019E8342
:102290008D830FC080E991E09C838B838B819C812F
:1022A0000197F1F79C838B838D819E8101979E839B
:1022B0008D838D819E81009769F714C06F81788529
:1022C00089859A850E944900DC01CB019E838D831C
:1022D0008D819E819A83898389819A810197F1F703
:1022E0009A83898389AD9AAD01969AAF89AF29AD5A
:1022F0003AAD8BAD9CAD2817390708F4DBCDEF96CE
:102300000FB6F894DEBF0FBECDBFCF91DF91089519
:10231000DF93CF93CDB7DEB7E0970FB6F894DEBF6B
:102320000FBECDBF81E063E041E00E94860980E0FE
:1023300090E0A0E2B1E48DA79EA7AFA7B8AB6DA5D2
:102340007EA58FA598A92BEA3AEA4AEA50E40E94B2
:102350001F02DC01CB0189A79AA7ABA7BCA769A57F
:102360007AA58BA59CA520E030E040E85FE30E94C1
:10237000250488231CF481E088A791C069A57AA56B
:102380008BA59CA520E030E04FE753E40E94C503F5
:1023900018160CF07BC06DA57EA58FA598A920E02E
:1023A00030E04AE754E40E941903DC01CB018CA31E
:1023B0009DA3AEA3BFA36CA17DA18EA19FA120E090
:1023C00030E04AE755E40E941F02DC01CB0188A3FC
:1023D00099A3AAA3BBA368A179A18AA19BA120E08C
:1023E00030E040E85FE30E94250488232CF481E07C
:1023F00090E09F8F8E8F3FC068A179A18AA19BA199
:1024000020E03FEF4FE757E40E94C50318164CF554
:102410006CA17DA18EA19FA120E030E040E251E4BB
:102420000E941F02DC01CB01BC01CD010E944900CA
:10243000DC01CB019F8F8E8F0FC080E991E09D8FD3
:102440008C8F8C8D9D8D0197F1F79D8F8C8F8E8D4C
:102450009F8D01979F8F8E8F8E8D9F8D009769F72F
:1024600024C068A179A18AA19BA10E944900DC0136
:10247000CB019F8F8E8F8E8D9F8D9B8F8A8F8A8DA4
:102480009B8D0197F1F79B8F8A8F0FC069A57AA565
:102490008BA59CA50E944900DC01CB0188A788A5DB
:1024A000898F898D8A95F1F7898F81E063E040E01B
:1024B0000E94860980E090E0AAEFB4E48D8B9E8BA9
:1024C000AF8BB88F6D897E898F89988D2BEA3AEA18
:1024D0004AEA50E40E941F02DC01CB01898B9A8BEF
:1024E000AB8BBC8B69897A898B899C8920E030E031
:1024F00040E85FE30E94250488231CF481E0888B78
:1025000091C069897A898B899C8920E030E04FE706
:1025100053E40E94C50318160CF07BC06D897E89B8
:102520008F89988D20E030E04AE754E40E94190337
:10253000DC01CB018C879D87AE87BF876C857D854D
:102540008E859F8520E030E04AE755E40E941F0217
:10255000DC01CB0188879987AA87BB876885798545
:102560008A859B8520E030E040E85FE30E942504F7
:1025700088232CF481E090E09F838E833FC06885A0
:1025800079858A859B8520E03FEF4FE757E40E94DD
:10259000C50318164CF56C857D858E859F8520E0DA
:1025A00030E040E251E40E941F02DC01CB01BC019B
:1025B000CD010E944900DC01CB019F838E830FC0B7
:1025C00080E991E09D838C838C819D810197F1F757
:1025D0009D838C838E819F8101979F838E838E81C3
:1025E0009F81009769F724C0688579858A859B85D6
:1025F0000E944900DC01CB019F838E838E819F81E5
:102600009B838A838A819B810197F1F79B838A83CD
:102610000FC069897A898B899C890E944900DC01F5
:10262000CB01888B8889898389818A95F1F7898391
:1026300080E0E0960FB6F894DEBF0FBECDBFCF911D
:10264000DF910895DF93CF93CDB7DEB782E00E948C
:10265000C21388E20E94C2138EE00E94C21386E079
:102660000E94C21381E00E94C21380E0CF91DF91EB
:102670000895DF93CF93CDB7DEB72E970FB6F894BA
:10268000DEBF0FBECDBF81E00E94C21380E090E0AC
:10269000A0E0B0E48B879C87AD87BE876B857C8587
:1026A0008D859E8520E030E04AE755E40E941F02B8
:1026B000DC01CB018F839887A987BA876F817885E2
:1026C00089859A8520E030E040E85FE30E94250498
:1026D00088232CF481E090E09E838D833FC06F813E
:1026E000788589859A8520E03FEF4FE757E40E947F
:1026F000C50318164CF56B857C858D859E8520E07D
:1027000030E040E251E40E941F02DC01CB01BC0139
:10271000CD010E944900DC01CB019E838D830FC057
:1027200080E991E09C838B838B819C810197F1F7F9
:102730009C838B838D819E8101979E838D838D8168
:102740009E81009769F714C06F81788589859A8585
:102750000E944900DC01CB019E838D838D819E8187
:102760009A83898389819A810197F1F79A83898372
:1027700080E02E960FB6F894DEBF0FBECDBFCF918E
:10278000DF910895DF93CF930F92CDB7DEB78983A2
:1027900081E061E040E00E94860981E060E040E085
:1027A0000E9486098981882334F480E066E041E054
:1027B0000E94860905C080E066E040E00E9486092C
:1027C00089818295869586958370882F90E08170A7
:1027D0009070882331F080E065E041E00E94860936
:1027E00005C080E065E040E00E948609898182950D
:1027F00086958770882F90E081709070882331F0E3
:1028000080E064E041E00E94860905C080E064E069
:1028100040E00E948609898182958F70882F90E020
:1028200081709070882331F080E063E041E00E9485
:10283000860905C080E063E040E00E9486090E94AE
:1028400088118981869586958695882F90E081707C
:102850009070882331F080E066E041E00E948609B4
:1028600005C080E066E040E00E9486098981869587
:102870008695882F90E081709070882331F080E0F9
:1028800065E041E00E94860905C080E065E040E027
:102890000E94860989818695882F90E081709070CA
:1028A000882331F080E064E041E00E94860905C0A1
:1028B00080E064E040E00E9486098981882F90E0F2
:1028C00081709070882331F080E063E041E00E94E5
:1028D000860905C080E063E040E00E9486090E940E
:1028E000881180E00F90CF91DF910895DF93CF930F
:1028F0000F92CDB7DEB7898381E061E041E00E94AD
:10290000860981E060E040E00E9486098981882391
:1029100034F480E066E041E00E94860905C080E072
:1029200066E040E00E9486098981829586958695B9
:102930008370882F90E081709070882331F080E060
:1029400065E041E00E94860905C080E065E040E066
:102950000E9486098981829586958770882F90E0EC
:1029600081709070882331F080E064E041E00E9443
:10297000860905C080E064E040E00E948609898104
:1029800082958F70882F90E081709070882331F04D
:1029900080E063E041E00E94860905C080E063E0DA
:1029A00040E00E9486090E9488118981869586955B
:1029B0008695882F90E081709070882331F080E0B8
:1029C00066E041E00E94860905C080E066E040E0E4
:1029D0000E948609898186958695882F90E081706E
:1029E0009070882331F080E065E041E00E94860924
:1029F00005C080E065E040E00E94860989818695F7
:102A0000882F90E081709070882331F080E064E03E
:102A100041E00E94860905C080E064E040E00E9439
:102A200086098981882F90E081709070882331F029
:102A300080E063E041E00E94860905C080E063E039
:102A400040E00E9486090E94881180E00F90CF919B
:102A5000DF910895DF93CF9300D00F92CDB7DEB70B
:102A60009B838A8381E061E041E00E94860981E0E6
:102A700060E040E00E94860919820EC08981282FFB
:102A800030E08A819B81FC01E20FF31F80810E946C
:102A9000761489818F5F89838981282F30E08A812C
:102AA0009B81FC01E20FF31F8081882339F780E0CE
:102AB0000F900F900F90CF91DF910895DF93CF93F8
:102AC00000D000D0CDB7DEB79A8389836B834C8367
:102AD00081E061E041E00E94860981E060E040E041
:102AE0000E9486098B816C810E94491889819A8194
:102AF0000E942A1580E00F900F900F900F90CF91B9
:102B0000DF910895DF93CF93CDB7DEB72E970FB641
:102B1000F894DEBF0FBECDBF9E878D8781E061E058
:102B200041E00E94860981E060E040E00E94860961
:102B30001A8219828D859E85009711F580E30E9487
:102B4000761439C08A81E82FF0E08D859E852AE0D1
:102B500030E0B9010E94F320282F205DCE010396BA
:102B6000E80FF91F20838D859E852AE030E0B901AA
:102B70000E94F320CB019E878D878A818F5F8A8395
:102B80008D859E850097F1F68A81898311C08981A0
:102B9000882F90E09C0121503040CE010396FC012B
:102BA000E20FF31F80810E9476148981815089830E
:102BB0008981882361F780E02E960FB6F894DEBFF6
:102BC0000FBECDBFCF91DF910895DF93CF93CDB7E7
:102BD000DEB7A3970FB6F894DEBF0FBECDBF98A3A4
:102BE0008F8F69A34AA381E061E041E00E948609DA
:102BF00081E060E040E00E94860989A1813009F00F
:102C000076C080E80E94C21380E090E0A0E8BFE3B5
:102C1000898F9A8FAB8FBC8F698D7A8D8B8D9C8DB0
:102C200020E030E04AE755E40E941F02DC01CB01BE
:102C30008D8B9E8BAF8BB88F6D897E898F89988D98
:102C400020E030E040E85FE30E94250488232CF474
:102C500081E090E09C8B8B8B3FC06D897E898F8952
:102C6000988D20E03FEF4FE757E40E94C503181608
:102C70004CF5698D7A8D8B8D9C8D20E030E040E2A3
:102C800051E40E941F02DC01CB01BC01CD010E9476
:102C90004900DC01CB019C8B8B8B0FC080E991E05C
:102CA0009A8B898B89899A890197F1F79A8B898BFD
:102CB0008B899C8901979C8B8B8B8B899C89009736
:102CC00069F792C06D897E898F89988D0E9449002D
:102CD000DC01CB019C8B8B8B8B899C89988B8F879C
:102CE0008F8598890197F1F7988B8F877DC089A18F
:102CF000823009F076C080EC0E94C21380E090E040
:102D0000A0E2B1E48B879C87AD87BE876B857C850D
:102D10008D859E8520E030E04AE755E40E941F0241
:102D2000DC01CB018F839887A987BA876F8178856B
:102D300089859A8520E030E040E85FE30E94250421
:102D400088232CF481E090E09E838D833FC06F81C7
:102D5000788589859A8520E03FEF4FE757E40E9408
:102D6000C50318164CF56B857C858D859E8520E006
:102D700030E040E251E40E941F02DC01CB01BC01C3
:102D8000CD010E944900DC01CB019E838D830FC0E1
:102D900080E991E09C838B838B819C810197F1F783
:102DA0009C838B838D819E8101979E838D838D81F2
:102DB0009E81009769F718C06F81788589859A850B
:102DC0000E944900DC01CB019E838D838D819E8111
:102DD0009A83898389819A810197F1F79A838983FC
:102DE00003C081E08BA31AC081E090E09E8F8D8F9D
:102DF00008C08CE10E94C2138D8D9E8D01969E8F1E
:102E00008D8F8AA1282F30E08D8D9E8D2817390750
:102E100084F78F8D98A10E9482151BA28BA1A39687
:102E20000FB6F894DEBF0FBECDBFCF91DF910895EE
:102E3000DF93CF93CDB7DEB7A2970FB6F894DEBF7E
:102E40000FBECDBF8F8F68A349A381E061E041E051
:102E50000E94860981E060E040E00E94860988A126
:102E6000813009F076C080E80E94C21380E090E0D3
:102E7000A0E8BFE3898F9A8FAB8FBC8F698D7A8D65
:102E80008B8D9C8D20E030E04AE755E40E941F02C4
:102E9000DC01CB018D8B9E8BAF8BB88F6D897E89CA
:102EA0008F89988D20E030E040E85FE30E942504A0
:102EB00088232CF481E090E09C8B8B8B3FC06D8944
:102EC0007E898F89988D20E03FEF4FE757E40E947D
:102ED000C50318164CF5698D7A8D8B8D9C8D20E07D
:102EE00030E040E251E40E941F02DC01CB01BC0152
:102EF000CD010E944900DC01CB019C8B8B8B0FC064
:102F000080E991E09A8B898B89899A890197F1F7F9
:102F10009A8B898B8B899C8901979C8B8B8B8B8956
:102F20009C89009769F792C06D897E898F89988DF9
:102F30000E944900DC01CB019C8B8B8B8B899C8987
:102F4000988B8F878F8598890197F1F7988B8F875A
:102F50007DC088A1823009F076C080EC0E94C21347
:102F600080E090E0A0E2B1E48B879C87AD87BE87CC
:102F70006B857C858D859E8520E030E04AE755E4B1
:102F80000E941F02DC01CB018F839887A987BA8733
:102F90006F81788589859A8520E030E040E85FE39D
:102FA0000E94250488232CF481E090E09E838D8389
:102FB0003FC06F81788589859A8520E03FEF4FE794
:102FC00057E40E94C50318164CF56B857C858D85EA
:102FD0009E8520E030E040E251E40E941F02DC01C7
:102FE000CB01BC01CD010E944900DC01CB019E83D5
:102FF0008D830FC080E991E09C838B838B819C81C2
:103000000197F1F79C838B838D819E8101979E832D
:103010008D838D819E81009769F718C06F817885B7
:1030200089859A850E944900DC01CB019E838D83AE
:103030008D819E819A83898389819A810197F1F795
:103040009A83898303C081E08AA319C081E090E05C
:103050009E8F8D8F08C08CE10E94C2138D8D9E8D36
:1030600001969E8F8D8F89A1282F30E08D8D9E8DAA
:103070002817390784F78F8D0E9476141AA28AA127
:10308000A2960FB6F894DEBF0FBECDBFCF91DF91F1
:103090000895DF93CF9300D000D00F92CDB7DEB765
:1030A00089836A838A8181508A838981282F30E0CD
:1030B0003D832C838C819D818130910531F02C8161
:1030C0003D812230310531F00AC08A8180580E944A
:1030D000C21308C08A8180540E94C21303C031E029
:1030E0003B8301C01B828B810F900F900F900F903C
:1030F0000F90CF91DF910895DF93CF9300D00F927F
:10310000CDB7DEB789836A838981882341F48A81B8
:10311000803198F48A8180580E94C2130EC0898140
:10312000813041F48A81803140F48A8180540E9448
:10313000C21303C081E08B8301C01B828B810F907F
:103140000F900F90CF91DF910895DF93CF93CDB77C
:10315000DEB765970FB6F894DEBF0FBECDBF9C8B70
:103160008B8BEB89FC898FEF80831F868B899C89F1
:10317000009709F4EDC0198AE5C08989882F90E08D
:10318000FC01EF56FE4F908181E0692F40E00E94E4
:103190008609188AC1C08889882F90E0FC01EB5607
:1031A000FE4F90819E012E5E3F4F83E0692FA90163
:1031B0000E94750A8A89882309F0ABC080E090E0FC
:1031C000A0EAB1E48B879C87AD87BE876B857C8541
:1031D0008D859E8520E030E04AE755E40E941F027D
:1031E000DC01CB018F839887A987BA876F817885A7
:1031F00089859A8520E030E040E85FE30E9425045D
:1032000088232CF481E090E09E838D833FC06F8102
:10321000788589859A8520E03FEF4FE757E40E9443
:10322000C50318164CF56B857C858D859E8520E041
:1032300030E040E251E40E941F02DC01CB01BC01FE
:10324000CD010E944900DC01CB019E838D830FC01C
:1032500080E991E09C838B838B819C810197F1F7BE
:103260009C838B838D819E8101979E838D838D812D
:103270009E81009769F714C06F81788589859A854A
:103280000E944900DC01CB019E838D838D819E814C
:103290009A83898389819A810197F1F79A83898337
:1032A0008889882F90E0FC01EB56FE4F90819E01AB
:1032B0002E5E3F4F83E0692FA9010E94750A0FC05F
:1032C0008889882F90E0FC01EB56FE4F90819E018B
:1032D0002E5E3F4F83E0692FA9010E94750A8A89FB
:1032E000882371F38989482F50E08889282F30E09E
:1032F000CA01880F991F880F991F820F931FFC0125
:10330000EF57FE4F8081EB89FC89808381E08F87B6
:1033100007C088898F5F888B8889843008F43BCF09
:103320008989882F90E0FC01EF56FE4F908181E063
:10333000692F41E00E9486098F85813039F08989A3
:103340008F5F898B8989843008F417CF1D8A02C06A
:1033500081E08D8B8D8965960FB6F894DEBF0FBE28
:10336000CDBFCF91DF910895DF93CF9300D0CDB73C
:10337000DEB789838981882359F482E061E041E0E6
:103380000E94970882E062E041E00E94970811C025
:103390008981813059F482E063E041E00E9497081E
:1033A00082E064E041E00E94970803C081E08A83E4
:1033B00001C01A828A810F900F90CF91DF910895FA
:1033C000DF93CF9300D0CDB7DEB78983898188237F
:1033D00059F482E061E040E00E94860982E062E008
:1033E00040E00E94860911C08981813059F482E051
:1033F00063E040E00E94860982E064E040E00E94D1
:10340000860903C081E08A8301C01A828A810F90F5
:103410000F90CF91DF910895DF93CF9300D000D02C
:103420000F92CDB7DEB789836A838A81282F30E077
:103430003D832C838C819D81009731F02C813D81CF
:1034400021303105E9F038C08981882359F482E0C0
:1034500061E041E00E94860982E062E040E00E9473
:1034600086092DC08981813051F582E063E041E019
:103470000E94860982E064E040E00E9486091FC045
:103480008981882359F482E061E040E00E94860946
:1034900082E062E041E00E94860911C089818130AA
:1034A00071F482E063E040E00E94860982E064E01B
:1034B00041E00E94860903C031E03B8301C01B82CA
:1034C0008B810F900F900F900F900F90CF91DF9105
:1034D0000895DF93CF93CDB7DEB781E08093B2013B
:1034E000CF91DF9108950F931F93DF93CF93CDB7C3
:1034F000DEB7C857D0400FB6F894DEBF0FBECDBFC1
:103500000E94400C0E9422130E94F90E789480E0E1
:103510000E94B419FE01EE58FF4F1082FE01EF58D1
:10352000FF4F108282E063E00E94F60682E00E9474
:10353000880629E63AE182E0B9010E944F0610921E
:10354000B20180E690E00E942A1581E065E00E94C9
:103550007C188091B201282F30E0E9963FAF2EAF62
:10356000E997E9964EAD5FADE9974230510509F410
:10357000C7C2E9968EAD9FADE997833091057CF483
:10358000E996EEADFFADE997309711F1E9962EADD2
:103590003FADE9972130310509F4D3C0DACFE99680
:1035A0004EAD5FADE9974430510509F41CC5E9966D
:1035B0008EAD9FADE997843091050CF469C3E9960F
:1035C000EEADFFADE997E530F10509F486C5C1CF51
:1035D00083E067E00E94CB0BFE01E359FF4F80E0E0
:1035E00090E0AAEFB3E480839183A283B3838E013A
:1035F00007591F4FFE01E359FF4F6081718182819E
:10360000938120E030E04AE755E40E941F02DC018C
:10361000CB01F80180839183A283B383FE01E75934
:10362000FF4F608171818281938120E030E040E82A
:103630005FE30E942504882344F4FE01E959FF4F0B
:1036400081E090E09183808364C0FE01E759FF4FE1
:10365000608171818281938120E03FEF4FE757E4E1
:103660000E94C50318160CF043C0FE01E359FF4F3A
:10367000608171818281938120E030E040E251E4F9
:103680000E941F02DC01CB018E0109591F4FBC01B2
:10369000CD010E944900DC01CB01F80191838083B8
:1036A0001FC0FE01EB59FF4F80E991E091838083B9
:1036B000FE01EB59FF4F808191810197F1F7FE01E7
:1036C000EB59FF4F91838083DE01A959BF4FFE0163
:1036D000E959FF4F80819181019711969C938E93B8
:1036E000FE01E959FF4F808191810097D1F631CFDA
:1036F0008E0109591F4FFE01E759FF4F608171810B
:10370000828193810E944900DC01CB01F801918301
:103710008083DE01AD59BF4FFE01E959FF4F808123
:10372000918111969C938E93FE01ED59FF4F8081FC
:1037300091810197F1F7FE01ED59FF4F918380834D
:1037400008CFCE018D589F4F0E94A518FE01ED585D
:10375000FF4F80818F3F09F4FCCE8AE20E947614ED
:103760008091A801882F90E0FE01ED58FF4F208145
:10377000FC01ED55FE4F20838091A8018F5F80935F
:10378000A8018091A801843008F4E3CE83EA91E097
:103790002CE731E0B9010E946721009709F0C6C00B
:1037A0000E94391381E790E00E942A1581E060E0D1
:1037B0000E947C1882E890E00E942A15FE01E15ADE
:1037C000FF4F80E090E0AAEFB4E480839183A2836E
:1037D000B3838E01055A1F4FFE01E15AFF4F6081EE
:1037E00071818281938120E030E04AE755E40E94B4
:1037F0001F02DC01CB01F80180839183A283B38394
:10380000FE01E55AFF4F608171818281938120E042
:1038100030E040E85FE30E942504882344F4FE0181
:10382000E75AFF4F81E090E09183808364C0FE01FE
:10383000E55AFF4F608171818281938120E03FEFE3
:103840004FE757E40E94C50318160CF043C0FE0171
:10385000E15AFF4F608171818281938120E030E0E5
:1038600040E251E40E941F02DC01CB018E01075AA5
:103870001F4FBC01CD010E944900DC01CB01F801C2
:10388000918380831FC0FE01E95AFF4F80E991E0D8
:1038900091838083FE01E95AFF4F808191810197D6
:1038A000F1F7FE01E95AFF4F91838083DE01A75AA9
:1038B000BF4FFE01E75AFF4F80819181019711961A
:1038C0009C938E93FE01E75AFF4F80819181009770
:1038D000D1F628C08E01075A1F4FFE01E55AFF4F4F
:1038E00060817181828193810E944900DC01CB015A
:1038F000F80191838083DE01AB5ABF4FFE01E75A86
:10390000FF4F8081918111969C938E93FE01EB5A1B
:10391000FF4F808191810197F1F7FE01EB5AFF4F34
:103920009183808382E08093B20113CE0E94391389
:103930008DE890E00E942A1583EA91E060E070E053
:1039400045E050E00E9460211092A801FE01EF5A6C
:10395000FF4F80E090E8ABEBB4E480839183A283D7
:10396000B3838E01035B1F4FFE01EF5AFF4F60814F
:1039700071818281938120E030E04AE755E40E9422
:103980001F02DC01CB01F80180839183A283B38302
:10399000FE01E35BFF4F608171818281938120E0B2
:1039A00030E040E85FE30E942504882344F4FE01F0
:1039B000E55BFF4F81E090E09183808364C0FE016E
:1039C000E35BFF4F608171818281938120E03FEF53
:1039D0004FE757E40E94C50318160CF043C0FE01E0
:1039E000EF5AFF4F608171818281938120E030E046
:1039F00040E251E40E941F02DC01CB018E01055B15
:103A00001F4FBC01CD010E944900DC01CB01F80130
:103A1000918380831FC0FE01E75BFF4F80E991E047
:103A200091838083FE01E75BFF4F80819181019745
:103A3000F1F7FE01E75BFF4F91838083DE01A55B19
:103A4000BF4FFE01E55BFF4F808191810197119689
:103A50009C938E93FE01E55BFF4F808191810097DF
:103A6000D1F627C08E01055B1F4FFE01E35BFF4FC0
:103A700060817181828193810E944900DC01CB01C8
:103A8000F80191838083DE01A95BBF4FFE01E55BF6
:103A9000FF4F808191818D939C93FE01E95BFF4FE5
:103AA000808191810197F1F7FE01E95BFF4F9183DE
:103AB00080831092A201DE01AE58BF4FFE01EE5886
:103AC000FF4F80818F5F8C930E9439138CE990E0C7
:103AD0000E942A1581E065E00E947C18FE01EE58E4
:103AE000FF4F8081833009F034CD0E94391386EA7C
:103AF00090E00E942A15FE01EE58FF4F108229CD5A
:103B00008091AF01882389F40E94391382EB90E001
:103B10000E942A1581E060E00E947C188EEB90E004
:103B20000E942A1581E08093AF01CE018C589F4FEF
:103B30000E94A518FE01EC58FF4F80818F3F09F4C9
:103B400008CDFE01EC58FF4F8081813331F4109293
:103B5000AF0183E08093B201FCCCFE01EC58FF4F33
:103B60008081823321F484E08093B201F2CC0E9400
:103B7000391389EC90E00E942A15FE01ED5BFF4F9E
:103B800080E090E0AAEFB4E480839183A283B383C2
:103B90008E01015C1F4FFE01ED5BFF4F6081718163
:103BA0008281938120E030E04AE755E40E941F02C1
:103BB000DC01CB01F80180839183A283B383FE01F2
:103BC000FF96608171818281938120E030E040E83E
:103BD0005FE30E94250488232CF481E090E09EAFEF
:103BE0008DAF46C0FE01FF96608171818281938115
:103BF00020E03FEF4FE757E40E94C503181664F535
:103C0000FE01ED5BFF4F608171818281938120E035
:103C100030E040E251E40E941F02DC01CB01BC0114
:103C2000CD010E944900DC01CB019EAF8DAF0FC0DA
:103C300080E991E09CAF8BAF8BAD9CAD0197F1F724
:103C40009CAF8BAF8DAD9EAD01979EAF8DAF8DAD0F
:103C50009EAD009769F716C0FE01FF9660817181E5
:103C6000828193810E944900DC01CB019EAF8DAF20
:103C70008DAD9EAD9AAF89AF89AD9AAD0197F1F741
:103C80009AAF89AF1092AF0182E08093B20161CC0C
:103C90008091B001882389F40E94391388ED90E067
:103CA0000E942A1581E060E00E947C1885EE90E079
:103CB0000E942A1581E08093B001CE018B589F4F5E
:103CC0000E94A518FE01EB58FF4F80818F3F09F439
:103CD00040CCFE01EB58FF4F8081813309F07FC05B
:103CE00080E060E00E940C1A80E090E8ABE3B5E46D
:103CF0008DAB9EABAFABB8AF6DA97EA98FA998ADC8
:103D000020E030E04AE755E40E941F02DC01CB01CD
:103D100089AB9AABABABBCAB69A97AA98BA99CA9BF
:103D200020E030E040E85FE30E94250488232CF483
:103D300081E090E098AB8FA73FC069A97AA98BA9D1
:103D40009CA920E03FEF4FE757E40E94C5031816F7
:103D50004CF56DA97EA98FA998AD20E030E040E236
:103D600051E40E941F02DC01CB01BC01CD010E9485
:103D70004900DC01CB0198AB8FA70FC080E991E02F
:103D80009EA78DA78DA59EA50197F1F79EA78DA74C
:103D90008FA598A9019798AB8FA78FA598A9009791
:103DA00069F714C069A97AA98BA99CA90E94490046
:103DB000DC01CB0198AB8FA78FA598A99CA78BA7F7
:103DC0008BA59CA50197F1F79CA78BA780E00E948B
:103DD000E0191092B00182E08093B201BACBFE01EB
:103DE000EB58FF4F8081823309F07FC080E061E0B3
:103DF0000E940C1A80E090E8ABE3B5E48FA398A78B
:103E0000A9A7BAA76FA178A589A59AA520E030E057
:103E10004AE755E40E941F02DC01CB018BA39CA35F
:103E2000ADA3BEA36BA17CA18DA19EA120E030E03B
:103E300040E85FE30E94250488232CF481E090E0B1
:103E40009AA389A33FC06BA17CA18DA19EA120E074
:103E50003FEF4FE757E40E94C50318164CF56FA1DA
:103E600078A589A59AA520E030E040E251E40E94BF
:103E70001F02DC01CB01BC01CD010E944900DC0125
:103E8000CB019AA389A30FC080E991E098A38F8FFB
:103E90008F8D98A10197F1F798A38F8F89A19AA18F
:103EA00001979AA389A389A19AA1009769F714C0E1
:103EB0006BA17CA18DA19EA10E944900DC01CB01D8
:103EC0009AA389A389A19AA19E8F8D8F8D8D9E8D96
:103ED0000197F1F79E8F8D8F80E00E94E01910927C
:103EE000B00182E08093B20134CB0E94391389EC97
:103EF00090E00E942A1580E090E0AAEFB4E4898F58
:103F00009A8FAB8FBC8F698D7A8D8B8D9C8D20E0C5
:103F100030E04AE755E40E941F02DC01CB018D8BA3
:103F20009E8BAF8BB88F6D897E898F89988D20E0AD
:103F300030E040E85FE30E94250488232CF481E010
:103F400090E09C8B8B8B3FC06D897E898F89988D8B
:103F500020E03FEF4FE757E40E94C50318164CF5E9
:103F6000698D7A8D8B8D9C8D20E030E040E251E4AC
:103F70000E941F02DC01CB01BC01CD010E9449005F
:103F8000DC01CB019C8B8B8B0FC080E991E09A8B7D
:103F9000898B89899A890197F1F79A8B898B8B890B
:103FA0009C8901979C8B8B8B8B899C89009769F7E7
:103FB00014C06D897E898F89988D0E944900DC012B
:103FC000CB019C8B8B8B8B899C89988B8F878F8562
:103FD00098890197F1F7988B8F871092B00183E051
:103FE0008093B201B6CA8091B101882349F40E943E
:103FF000391383EF90E00E942A1581E08093B1018C
:10400000CE018A589F4F0E94A518FE01EA58FF4F23
:1040100080818F3F09F49DCA9091AE0181E0692FA4
:104020000E947C18FE01EA58FF4F80810E9476149E
:104030008091AE01282F30E0FE01EA58FF4F8081C9
:104040008053F901E755FE4F80838091AE018F5F69
:104050008093AE018091AE01833008F47ACA8091DA
:10406000A901282F30E084E690E0AC01249FC00134
:10407000259F900D349F900D1124482F8091AA0107
:10408000882F90E09C01220F331FC901880F991FD0
:10409000880F991F820F931F942F980F8091AB0167
:1040A000FE01EF58FF4F890F8083FE01EF58FF4F4D
:1040B00080810E94280F89EA91E060E070E045E08D
:1040C00050E00E9460211092AE011092B101109256
:1040D000AF0182E08093B2013CCA0E94391381E0B3
:1040E00091E00E942A1580E090E0AAE7B4E48B8773
:1040F0009C87AD87BE876B857C858D859E8520E0FE
:1041000030E04AE755E40E941F02DC01CB018F83B7
:104110009887A987BA876F81788589859A8520E0F5
:1041200030E040E85FE30E94250488232CF481E01E
:1041300090E09E838D833FC06F81788589859A85C5
:1041400020E03FEF4FE757E40E94C50318164CF5F7
:104150006B857C858D859E8520E030E040E251E4D2
:104160000E941F02DC01CB01BC01CD010E9449006D
:10417000DC01CB019E838D830FC080E991E09C839D
:104180008B838B819C810197F1F79C838B838D813D
:104190009E8101979E838D838D819E81009769F713
:1041A00014C06F81788589859A850E944900DC0159
:1041B000CB019E838D838D819E819A8389838981A2
:1041C0009A810197F1F79A83898380E090E0C8583B
:1041D000DF4F0FB6F894DEBF0FBECDBFCF91DF919A
:1041E0001F910F910895AA1BBB1B51E107C0AA1F85
:1041F000BB1FA617B70710F0A61BB70B881F991F88
:104200005A95A9F780959095BC01CD010895A1E23A
:104210001A2EAA1BBB1BFD010DC0AA1FBB1FEE1F40
:10422000FF1FA217B307E407F50720F0A21BB30B8B
:10423000E40BF50B661F771F881F991F1A9469F707
:1042400060957095809590959B01AC01BD01CF0163
:1042500008952F923F924F925F926F927F928F922A
:104260009F92AF92BF92CF92DF92EF92FF920F9305
:104270001F93CF93DF93CDB7DEB7CA1BDB0B0FB60F
:10428000F894DEBF0FBECDBF09942A8839884888CC
:104290005F846E847D848C849B84AA84B984C88462
:1042A000DF80EE80FD800C811B81AA81B981CE0F59
:1042B000D11D0FB6F894DEBF0FBECDBFED0108953E
:1042C000DC0101C06D9341505040E0F70895FB01BF
:1042D000DC018D91019080190110D9F3990B08959B
:0442E000F894FFCF80
:1042E400456E7465722050617373776F7264202118
:1042F4000057656C636F6D6520746F204D6F746F2C
:1043040072004461736820626F6172640057726F57
:104314006E672050617373776F72640054727920F2
:10432400616761696E00426C6F636B656420212173
:104334002100312D204443204D6F746F7200322DC3
:10434400205374657070657200496E76616C69649F
:10435400204F7074696F6E00312D20526F74617438
:104364006520435700322D20526F746174652043D9
:10437400435700416E676C65283364696729203AA6
:1043840000457869742053797374656D203A290067
:104394000000000000000000000001000001010016
:1043A40000020100000301000004010000050100F7
:1043B40000060100000701000200010001020000E4
:1043C40001000100010101000103010001040100D9
:1043D40001050100010601000107010003020001BB
:1043E40003030001030400010305000101000100AF
:1043F40002040100030701000000000031323334DD
:10440400003738392F3435362A3132332D43303D95
:0A4414002B0405060702030405004F
:00000001FF
