:100000000C942A000C9447000C9447000C94470071
:100010000C9447000C9447000C9447000C94470044
:100020000C9447000C9447000C9447000C94470034
:100030000C9447000C9447000C9447000C94470024
:100040000C9447000C9447000C9447000C94470014
:100050000C94470011241FBECFE5D8E0DEBFCDBF12
:1000600010E0A0E6B0E0ECE4F9E002C005900D92EB
:10007000A63DB107D9F720E0A6EDB0E001C01D9282
:10008000A83DB207E1F70E946E000C94A4040C9402
:1000900000008091D700811109C08091D6008F3077
:1000A00029F481E08093D7001092D6008091D70088
:1000B000813051F48091D6008F3031F40E9460017C
:1000C0001092D7001092D6006091D6006F5F6093B7
:1000D000D6008091D7000E9403020895CF93DF934A
:1000E000CDB7DEB7A4970FB6F894DEBF0FBECDBF75
:1000F0000E9418030E944C0160E080E00E9403020D
:1001000088E0E4EAF0E0DE01119601900D928A9514
:10011000E1F788E0ECEAF0E0DE01199601900D923B
:100120008A95E1F788E0E4EBF0E0DE01519601907A
:100130000D928A95E1F788E0ECEBF0E0DE0159964C
:1001400001900D928A95E1F760E0CE0101960E9440
:100150001D0261E0CE0109960E941D0262E0CE01FF
:1001600041960E941D0263E0CE0149960E941D0245
:1001700019A21AA21BA21CA280E80E942E0184ECE4
:1001800090E00E94E6012FEF89E698E1215080403F
:100190009040E1F700C000000E946001AE014F5D99
:1001A0005F4F66E082E00E94C402AE014E5D5F4F89
:1001B00065E082E00E94C402AE014D5D5F4F64E0E5
:1001C00082E00E94C402AE014C5D5F4F63E082E0BA
:1001D0000E94C4022FEF89EC98E0215080409040AB
:1001E000E1F700C0000089A1813031F40E9449008C
:1001F00080E00E946B01D2CF8AA1813031F40E944D
:10020000490081E00E946B01C9CF8BA1813031F49C
:100210000E94490082E00E946B01C0CF8CA1813016
:1002200009F0BCCF0E94490083E00E946B01B6CF69
:1002300041E062E080E00E94390285E38A95F1F7AF
:10024000000040E062E080E00E9439028FE39FE11D
:100250000197F1F700C0000080E00895CF93C82F08
:1002600040E061E080E00E94390240E060E080E030
:100270000E9439026C2F607F80E00E9402030E947E
:1002800018016C2F6295607F80E00E9402030E943B
:10029000180180E0CF91089583E30E942E0182E34C
:1002A0000E942E0188E20E942E018CE00E942E0105
:1002B00086E00E942E0181E00E942E0180E00895D8
:1002C00081E00E942E018FE39FE10197F1F700C0CA
:1002D000000080E00895CF93C82F41E061E080E006
:1002E0000E94390240E060E080E00E943902CC23A5
:1002F00034F441E067E080E00E94390205C040E04C
:1003000067E080E00E943902C6FF06C041E066E077
:1003100080E00E94390205C040E066E080E00E9473
:100320003902C5FF06C041E065E080E00E94390265
:1003300005C040E065E080E00E943902C4FF06C0CD
:1003400041E064E080E00E94390205C040E064E0E2
:1003500080E00E9439020E941801C3FF06C041E0FC
:1003600067E080E00E94390205C040E067E080E07D
:100370000E943902C2FF06C041E066E080E00E94B0
:10038000390205C040E066E080E00E943902C1FF0A
:1003900006C041E065E080E00E94390205C040E00F
:1003A00065E080E00E943902C0FF06C041E064E0E1
:1003B00080E00E94390205C040E064E080E00E94D5
:1003C00039020E94180180E0CF9108950F931F9386
:1003D000CF938C0141E061E080E00E94390240E06F
:1003E00060E080E00E943902C0E003C00E946B011F
:1003F000CF5FF801EC0FF11D80818111F7CFCF9114
:100400001F910F910895811108C0603180F480E838
:10041000860F0E942E0180E00895813051F46031F2
:1004200050F480EC860F0E942E0180E0089580E059
:10043000089581E0089580E008950F931F93CF936E
:100440008C01862F90E00896880F880F880F0E94F5
:100450002E01C0E007C0F801EC0FF11D80810E9461
:100460006B01CF5FC830B8F380E0CF911F910F913F
:100470000895683008F07CC081111DC0413061F4DE
:100480002BB381E090E002C0880F991F6A95E2F7D4
:10049000822B8BBB80E0089541116CC02BB381E0AF
:1004A00090E002C0880F991F6A95E2F78095822339
:1004B0008BBB80E008958130E9F4413061F428B3CA
:1004C00081E090E002C0880F991F6A95E2F7822BC5
:1004D00088BB80E0089541114FC028B381E090E0CF
:1004E00002C0880F991F6A95E2F78095822388BB26
:1004F00080E008958230E9F4413061F425B381E071
:1005000090E002C0880F991F6A95E2F7822B85BBA5
:1005100080E00895411132C025B381E090E002C02F
:10052000880F991F6A95E2F78095822385BB80E04A
:100530000895833029F5413061F422B381E090E0E1
:1005400002C0880F991F6A95E2F7822B82BB80E078
:100550000895411117C022B381E090E002C0880FD6
:10056000991F6A95E2F78095822382BB80E0089507
:1005700081E0089581E0089581E0089581E0089583
:1005800081E0089581E008956830C0F581110CC0C4
:1005900089B390E002C0959587956A95E2F78170DE
:1005A000FA01808380E00895813061F486B390E0A1
:1005B00002C0959587956A95E2F78170FA0180836C
:1005C00080E00895823061F483B390E002C0959595
:1005D00087956A95E2F78170FA01808380E008953B
:1005E000833071F480B390E002C0959587956A9549
:1005F000E2F78170FA01808380E0089581E0089538
:1006000081E00895813049F028F0823049F083304C
:1006100051F00CC06BBB80E0089568BB80E008958A
:1006200065BB80E0089562BB80E0089581E0089595
:1006300080E090E083C1FC01EE0FFF1FEE0FFF1F73
:10064000E05AFF4F208121115CC0FC01EE0FFF1F1B
:10065000EE0FFF1FE05AFF4F2281213099F44AB379
:10066000FC01EE0FFF1FEE0FFF1FE05AFF4F21E0CE
:1006700030E0018002C0220F331F0A94E2F7242BDE
:100680002ABB5BC14AB3FC01EE0FFF1FEE0FFF1F39
:10069000E05AFF4F21E030E0018002C0220F331FFB
:1006A0000A94E2F7209524232ABB2381213099F470
:1006B0004BB3FC01EE0FFF1FEE0FFF1FE05AFF4F81
:1006C00021E030E0018002C0220F331F0A94E2F7DC
:1006D000242B2BBB32C1211130C14BB3FC01EE0FD7
:1006E000FF1FEE0FFF1FE05AFF4F21E030E00180B7
:1006F00002C0220F331F0A94E2F7209524232BBB5C
:100700001CC1213009F05CC0FC01EE0FFF1FEE0F91
:10071000FF1FE05AFF4F2281213099F447B3FC01BB
:10072000EE0FFF1FEE0FFF1FE05AFF4F21E030E0FA
:10073000018002C0220F331F0A94E2F7242B27BB4B
:10074000FCC047B3FC01EE0FFF1FEE0FFF1FE05A86
:10075000FF4F21E030E0018002C0220F331F0A94D6
:10076000E2F72095242327BB2381213099F448B355
:10077000FC01EE0FFF1FEE0FFF1FE05AFF4F21E0BD
:1007800030E0018002C0220F331F0A94E2F7242BCD
:1007900028BBD3C02111D1C04BB3FC01EE0FFF1F0A
:1007A000EE0FFF1FE05AFF4F21E030E0018002C052
:1007B000220F331F0A94E2F7209524232BBBBDC0E0
:1007C000223009F05CC0FC01EE0FFF1FEE0FFF1F8F
:1007D000E05AFF4F2281213099F444B3FC01EE0F1F
:1007E000FF1FEE0FFF1FE05AFF4F21E030E00180B6
:1007F00002C0220F331F0A94E2F7242B24BB9DC0B2
:1008000044B3FC01EE0FFF1FEE0FFF1FE05AFF4F36
:1008100021E030E0018002C0220F331F0A94E2F78A
:100820002095242324BB2381213099F445B3FC0176
:10083000EE0FFF1FEE0FFF1FE05AFF4F21E030E0E9
:10084000018002C0220F331F0A94E2F7242B25BB3C
:1008500074C0211172C04BB3FC01EE0FFF1FEE0FED
:10086000FF1FE05AFF4F21E030E0018002C0220F5D
:10087000331F0A94E2F7209524232BBB5EC023305C
:1008800009F05BC0FC01EE0FFF1FEE0FFF1FE05AE7
:10089000FF4F2281213099F441B3FC01EE0FFF1F7D
:1008A000EE0FFF1FE05AFF4F21E030E0018002C051
:1008B000220F331F0A94E2F7242B21BB3EC041B321
:1008C000FC01EE0FFF1FEE0FFF1FE05AFF4F21E06C
:1008D00030E0018002C0220F331F0A94E2F7209516
:1008E000242321BB2381213099F442B3FC01EE0F74
:1008F000FF1FEE0FFF1FE05AFF4F21E030E00180A5
:1009000002C0220F331F0A94E2F7242B22BB15C02A
:10091000211113C04BB3FC01EE0FFF1FEE0FFF1FA1
:10092000E05AFF4F21E030E0018002C0220F331F68
:100930000A94E2F7209524232BBB0196813191057F
:0C0940000CF479CE80E00895F894FFCF0D
:10094C00000101000002010000030100000401008D
:10095C000005010000060100000701000102000073
:10096C00010401000105010001060100010701005D
:10097C000203000002040000020500000206000051
:10098C000000000000000A0011110E00000004001D
:10099C001F1F0E0400040E1F0404040411110A0E80
:1009AC000E040A11437573746F6D20436861726194
:0609BC0063746572000087
:00000001FF
